:020000040800F2
:105000004007002059510008396C00083B6C00082B
:105010000000000000000000000000000000000090
:105020000000000000000000000000003F6C0008CD
:105030000000000000000000416C0008436C000804
:105040006B510008000000006B5100086B51000814
:105050006B5100086B5100086B5100086B51000840
:10506000000000006B5100086B5100086B510008F4
:105070006B5100086B5100086B51000800000000E4
:105080006B51000800000000000000006B51000898
:105090006B5100086B5100086B5100086B51000800
:1050A0006B5100086B5100086B510008EF6A000853
:1050B0006B51000800F002F800F03EF80CA030C878
:1050C000083824182D18A246671EAB4654465D4684
:1050D000AC4201D100F030F87E460F3E0FCCB64610
:1050E0000126334200D0FB1AA246AB463343184791
:1050F000B01D0000D01D0000103A02D378C878C15E
:10510000FAD8520701D330C830C101D504680C6009
:10511000704700000023002400250026103A01D328
:1051200078C1FBD8520700D330C100D50B6070475F
:105130001FB51FBD10B510BD01F076FE1146FFF77B
:10514000F7FF01F025FD01F0A0FE03B4FFF7F2FF29
:1051500003BC01F077FC0000074880470748004780
:10516000FEE7FEE7FEE7FEE7FEE7FEE70448054947
:10517000054A064B70470000D7680008B550000884
:105180004001002040070020400300204003002091
:1051900001460020FE4A10684008400002460A43CB
:1051A0001046FB4A10607047002806D0F84909688D
:1051B00010221143F64A116005E0F54909681022F2
:1051C0009143F34A116070470020F1490968202299
:1051D0001140002901D0012000E000207047EC4878
:1051E000006980210840002804D0EA48E849486066
:1051F000E94848607047E648006980210843E4496F
:10520000086170470420E249C968C907C90F00292D
:1052100001D0012010E0DE49C968102211400029A8
:1052200001D0022008E0DA49C968042211400029AF
:1052300001D0032000E00420704710B50346042489
:10524000FFF7E0FF044603E0FFF7DCFF04465B1EC8
:10525000012C01D1002BF7D1002B00D105242046D1
:1052600010BD30B5044604250B200004FFF7E5FF10
:105270000546042D17D1C648006902210843C449D8
:10528000086108464461006940210843C04908613B
:105290000B200004FFF7D1FF0546BD48006902213D
:1052A0008843BB490861284630BD10B504240B2053
:1052B0000004FFF7C2FF0446042C16D1B44800696D
:1052C00004210843B24908610846006940210843A7
:1052D000AF4908610B200004FFF7AFFF0446AC485C
:1052E000006904218843AA490861204610BD78B5A9
:1052F00006460C460425002000900B200004FFF712
:105300009CFF0546042D24D1A148006901210843D2
:105310009F49086134800B200004FFF78EFF05468B
:10532000042D10D1B01C0090200C009908800B2097
:105330000004FFF782FF05469548006940084000D9
:105340009349086105E0924800694008400090498F
:105350000861284678BD70B504460D4604260B202A
:105360000004FFF76AFF0646042E11D18848006941
:10537000012108438649086125800B200004FFF7BE
:105380005CFF064682480069400840008049086189
:10539000304670BD7E48006901214902084000285E
:1053A00004D17C487A4988607B4888607047784897
:1053B00000690121490288437549086170477448B2
:1053C00000690121490308437149086170470020C1
:1053D0006F49C96906221140002901D0012000E06F
:1053E0000020704730B5AA250424FFF7F0FF0028FD
:1053F00000D000250B200004FFF71FFF0446042CFB
:1054000036D1634800692021084361490861084694
:105410000069402108435E4908610B200004FFF742
:105420000CFF0446042C1BD15948006920218843F5
:10543000574908610846006910210843544908612A
:10544000564805800B200004FFF7F7FE0446052CA4
:105450000ED04F480069102188434D49086107E08C
:10546000052C05D04A480069102188434849086145
:10547000204630BDFCB50446494E374630460190C3
:1054800000900425E443E6B22004070E2002000E3B
:105490000190200E00900B200004FFF7CEFE054681
:1054A000042D3BD13A48006910210843384908616E
:1054B000FF2E06D0394806810B200004FFF7BDFE01
:1054C0000546042D08D1FF2F06D0344847810B2014
:1054D0000004FFF7B2FE0546042D0AD10198FF280B
:1054E00007D02E49019888810B200004FFF7A5FE04
:1054F0000546042D0AD10098FF2807D027490098B7
:10550000C8810B200004FFF798FE0546052D05D045
:105510001F480069102188431D4908612846FCBDC9
:1055200030B5054604240B200004FFF786FE044630
:10553000042C41D116480069202108431449086110
:105540000846006940210843114908610B20000406
:10555000FFF773FE0446042C26D10D480069202174
:1055600088430B490861084600691021084308492F
:1055700008610A4805800B200004FFF75EFE044620
:10558000052C19D00248006910218843004909E020
:105590000020024023016745AB89EFCD00F8FF1FD3
:1055A000FFFF0000086107E0052C05D0A248006954
:1055B00020218843A0490861204630BDF0B505464A
:1055C0000E46174604240B200004FFF736FE04465F
:1055D000042C19D1984800691021084396490861A4
:1055E00028463043F82139430843944948800B202A
:1055F0000004FFF722FE0446052C05D08E48006902
:10560000102188438C4908612046F0BD30B505461D
:1056100004240B200004FFF710FE0446042C16D1CE
:10562000854800691021084383490861EF20284319
:10563000824948800B200004FFF7FFFD0446052C3B
:1056400005D07D480069102188437B4908612046C8
:1056500030BD30B5054604240B200004FFF7EDFDF6
:105660000446042C16D1744800691021084372497D
:105670000861F7202843714948800B200004FFF798
:10568000DCFD0446052C05D06B48006910218843D9
:1056900069490861204630BD30B5054604240B2019
:1056A0000004FFF7CAFD0446042C16D162480069C5
:1056B00010210843604908617F2028435F494880E2
:1056C0000B200004FFF7B9FD0446052C05D05A480D
:1056D00000691021884358490861204630BD30B523
:1056E000054604240B200004FFF7A7FD0446042C04
:1056F00016D151480069102108434F490861DF2045
:1057000028434E4948800B200004FFF796FD0446CD
:10571000052C05D048480069102188434649086196
:10572000204630BD30B5054604240B200004FFF7A9
:1057300084FD0446042C16D13F480069102108431B
:105740003D490861BF2028433C4948800B200004A4
:10575000FFF773FD0446052C05D03748006910217A
:10576000884335490861204630BD30B505460424DC
:105770000B200004FFF761FD0446042C14D12E48D1
:105780000069102108432C4908612C4845800B20F2
:105790000004FFF752FD0446052C05D02648006999
:1057A0001021884324490861204630BD70B5054664
:1057B0000E4604240B200004FFF73FFD0446042C92
:1057C00013D11D480069102108431B4908612E8030
:1057D0000B200004FFF731FD0446052C05D01648C8
:1057E00000691021884314490861204670BD1248A1
:1057F000C0690004000E70470F48006A7047002916
:1058000005D00D4A126902430B4B1A6104E00A4AA3
:1058100012698243084B1A61704701460020064A0C
:10582000D2680A40002A01D0012000E00020704721
:105830000149C860704700000020024000F8FF1FC7
:1058400010B504460920C006844209D1012148044C
:1058500000F064FC00210120400400F05FFC3CE00B
:105860007448844208D10121000200F057FC002155
:10587000200200F053FC30E06F48844208D101213F
:10588000000200F04BFC0021200200F047FC24E065
:105890006A48844209D10121080500F03FFC00213B
:1058A0000120000500F03AFC17E06548844208D169
:1058B0000121400200F032FC0021600200F02EFCC9
:1058C0000BE06048844208D10121880500F026FCE5
:1058D00000210120800500F021FC10BDF0B50A4632
:1058E00000210023002400BF3DE001258D402B4610
:1058F00015681D402C469C4234D11579012D02D0EB
:105900001579022D16D185684F000326BE40B54398
:10591000856055794E00B540866835438560858839
:1059200001268E40B5438580858896798E40B6B233
:105930003543858005684F000326BE40B5430560AA
:1059400015794E00B540066835430560C5684F00BF
:105950000326BE40B543C560D5794E00B540C66844
:105960003543C560491C1029BFD3F0BD36490160DD
:10597000002101710121417100218171C1717047C4
:1059800008B5012212040092009A0A430092009A7C
:10599000C261C161009AC261C2690092C26900928B
:1059A00008BD02460020138A0B40002B01D00120C5
:1059B00000E0002070470146088A70470246002038
:1059C000938A0B40002B01D0012000E0002070479B
:1059D0000146888A70478161704701857047002AB7
:1059E00001D0816100E00185704781827047F0B588
:1059F000002300244D07EE0E1546B5402B46CD1072
:105A0000AE0005462035AD594E07F70E0F26BE40B5
:105A1000B543CE10B60007462037BD51CD10AE00BD
:105A20003D46AD591D432C46CD10AD003E46745148
:105A3000F0BD00000004004800080048000C0048C9
:105A40000010004800140048FFFF00000021827889
:105A5000002A27D0274A03231B02D21803789B1061
:105A60009B00D15802789207D30EFF229A400B4632
:105A70009343194642789207120E03789B07DB0E78
:105A80009A4011431B4A03231B02D21803789B1030
:105A90009B00D1500278D306DB0E01229A40154BB1
:105AA0001A6007E00278D306DB0E01229A40114B00
:105AB00080331A607047002905D00F4A12690243EB
:105AC0000D4B1A6104E00C4A126982430A4B1A61B9
:105AD0007047042806D10949096904221143074A7D
:105AE000116105E00549096904229143034A1161E6
:105AF0007047000000E100E000ED00E000E000E0A1
:105B0000FB48006801210843F949086008464068DD
:105B1000F8490840F649486008460068F6490840D8
:105B2000F349086008460068012189048843F04968
:105B30000860084640683F2109048843EC494860F2
:105B40000846C06A00090001C8620846006BFF21D0
:105B500054318843E64908630846406B40084000DA
:105B600048630020886070470021E14A9170114627
:105B70008870704710B502460021002300205111A3
:105B8000002902D1DA4C23680BE0012902D1D84C5C
:105B9000236A06E0022902D1D54C636A01E0D44CA5
:105BA000636BD106C90E01248C401C40002C01D02F
:105BB000012000E0002010BD38B500200090002436
:105BC000002500BF1120FFF7D5FF05460098401CB7
:105BD0000090052109030098884201D0002DF1D0E2
:105BE0001120FFF7C7FF002801D0012400E00024A6
:105BF000204638BD01460020BD4A1068F823024601
:105C00009A431046CA001043B94A106070470028F2
:105C100006D0B749096801221143B54A116005E071
:105C2000B349096849084900B14A11607047014603
:105C30000020AF4A506BF82302469A431046CA0030
:105C40001043AB4A50637047002806D0A849496BFF
:105C500001221143A64A516305E0A549496B490851
:105C60004900A34A51637047002806D0A049496BF8
:105C7000042291439E4A516305E09D49496B0422E9
:105C800011439B4A516370479949096A4908490081
:105C9000974A11621146096A04229143944A11629B
:105CA0001146096A0143116270479149096A182235
:105CB00091438F4A11621146096A0143116270478C
:105CC000002806D08A49496A01221143884A516254
:105CD00005E08749496A49084900854A5162704789
:105CE000834A52687B23DB039A43814B5A601A46EE
:105CF000526803460B431A437D4B5A607047002895
:105D000007D07B490968012212061143784A1160C5
:105D100006E077490968012212069143744A11602E
:105D20007047002807D07249496B012212041143C1
:105D30006F4A516306E06E49496B01221204914398
:105D40006B4A5163704701460020694AD06A0009D6
:105D5000000102460A431046654AD0627047002897
:105D600007D0634909680122D2041143604A1160D7
:105D700006E05F4909680122D20491435C4A116040
:105D800070475B49C871704701460020584A506807
:105D90008008800002460A431046554A506070470A
:105DA000534840680C210840704701460020504A83
:105DB0005068F02302469A43104602460A431046B2
:105DC0004B4A5060704701460020494A50680723FB
:105DD0001B0202469A43104602460A431046444AB2
:105DE0005060704742494968012292039143404AFA
:105DF00051601146496882B211433D4A51601146D3
:105E0000096B921591433A4A11631146096B020CD2
:105E10001143374A116370473549096B402291435A
:105E2000334A11631146096B0143116370473049CE
:105E3000096B102291432E4A11631146096B0143ED
:105E4000116370470021010F012906D1284A126B06
:105E500092089200264B1A6306E0254A126B032330
:105E60001B049A43224B1A63214A126B0243204BB4
:105E70001A6370471E49096B802291431C4A1163C3
:105E80001146096B014311637047FEB504460025B6
:105E900000260020029001900090002714484068DE
:105EA0000C2108400546002D06D0042D07D0082DF2
:105EB00008D00C2D37D133E01048206036E00F4871
:105EC000206033E00A4840680F21890408400646F4
:105ED000074840680321C90308400290B00C861CA3
:105EE000029800280ED106483746474316E00000C6
:105EF000001002400CB8FFF8FFFFF6FE00127A0017
:105F000000093D00AC48C06A0007000F401C01902A
:105F1000AA48019900F0A6FE70430746276005E0F5
:105F2000A748206002E0A548206000BF00BFA2484B
:105F30004068F021084005462D09A248405D0090C8
:105F400021680098C14061609B48406807210902B0
:105F5000084005462D0A9B48405D00906168009806
:105F6000C140A1609448006BFF2101310840884284
:105F700002D09548E0600DE08F4840680121890318
:105F80000840884203D0A0684008E06002E0A068B2
:105F90008008E0608848006B40210840402802D01B
:105FA0008A48206102E00120C00320618248006B22
:105FB00010210840102802D08048606101E020686C
:105FC00060617D48006B8007800F002802D1A068C7
:105FD000A06119E07848006B8007800F012802D18A
:105FE0002068A06110E07448006B8007800F0228D1
:105FF00002D18003A06107E06F48006B8007800F2B
:10600000032801D16D48A0616B48006B032109048E
:106010000840002802D1A068E06120E06648006BDB
:1060200003210904084001210904884202D12068A3
:10603000E06114E06048006B03210904084001217D
:106040004904884202D18010E06108E05A48006BA0
:10605000032109040840884201D15848E0615648AC
:10606000006B80210840802802D05548206200E063
:106070002762FEBD5049096A01434F4A11627047C9
:10608000002807D04C49096A0122D20311434A4A29
:10609000116206E04849096A0122D2039143464A47
:1060A00011627047002807D04349096A012212048F
:1060B0001143414A116206E03F49096A0122120474
:1060C00091433D4A11627047002905D03A4A52690E
:1060D0000243394B5A6104E0374A52698243364BD6
:1060E0005A617047002905D0334A92690243324B06
:1060F0009A6104E0304A926982432F4B9A6170475B
:10610000002905D02C4AD26902432B4BDA6104E006
:10611000294AD2698243284BDA617047002905D0A9
:10612000254A926A0243244B9A6204E0224A926A08
:106130008243214B9A627047002905D01E4AD268DB
:1061400002431D4BDA6004E01B4AD26882431A4BBB
:10615000DA607047002905D0174A12690243164BCE
:106160001A6104E0144A12698243134B1A617047A2
:10617000002905D0104A527A02430F4B5A7204E0AC
:106180000D4A527A82430C4B5A7270470A48406A51
:10619000012109060843084948627047014600206A
:1061A000054A92680A40002A01D0012000E0002040
:1061B00070470149887270470010024000127A004F
:1061C000006CDC02B4000020809FD500128000002B
:1061D0003A4800688007800F3849086000208860CE
:1061E00000213648C160016141618069FF210131B0
:1061F0000843324988617047014600202F4A1068E1
:106200008008800002460A4310462C4A10607047FE
:10621000002905D0294A12680243284B1A6004E07D
:10622000264A12688243254B1A607047002905D020
:10623000224A12680243214B1A6004E01F4A126886
:1062400082431E4B1A60704730B500228B071C0F2B
:106250000F23A3401A46194B08338C10A4001B5976
:106260009343164C08348D10AD00635123468C10B7
:10627000A4001B598C07250F0446AC4023430F4C48
:1062800008348D10AD00635130BD0C49896901435C
:106290000A4A9161704701460020084A9269FF232B
:1062A00001331A40002A01D0012000E0002070478D
:1062B000024989690143014A916170470000014028
:1062C00010B50446F848844209D101218803FFF73C
:1062D00033FF002101208003FFF72EFF25E0F34864
:1062E000844209D101214804FFF734FF0021012035
:1062F0004004FFF72FFF18E0ED48844209D1012147
:106300008804FFF727FF002101208004FFF722FF08
:106310000BE0E848844208D10121C804FFF71AFFC6
:1063200000210120C004FFF715FF10BDF0B58BB0B0
:1063300004460D46002700200A90002620684008E9
:106340004000206066680321090330468843064602
:10635000A868064366602668D7480640E96868680A
:1063600008432969084306432660A66803210902F9
:1063700030468843064668690643A66001A8FFF7D1
:1063800084FDC948844202D107980A9007E0C748B3
:10639000844202D108980A9001E003980A9020688C
:1063A0000121C903084000280CD029680A9A50002E
:1063B00000F058FC074629680A9A500000F052FC89
:1063C0000E4609E029680A9800F04CFC0746296847
:1063D0000A9800F047FC0E4628684008B04200D8F2
:1063E0007F1C20680121C9030840002806D0380717
:1063F000460F3846B149084030430746A7810BB0E5
:10640000F0BD4B21C9010160002141608160C16084
:106410000C21016100214161704710B500224268E2
:106420000F2424021346A3431A464C680B682343E7
:106430008C682343CC6823431A43426010BD00217B
:10644000016041608160C1607047002904D002682A
:1064500001231A43026003E00268520852000260FE
:106460007047002A03D003680B43036002E003680F
:106470008B4303607047002905D002680123DB03CA
:106480001A43026004E002680123DB039A430260BE
:106490007047002905D082680123DB021A4382601D
:1064A00004E082680123DB029A438260704700297E
:1064B00005D042680123DB041A43426004E04268CD
:1064C0000123DB049A4342607047002905D04268EB
:1064D00001239B041A43426004E0426801239B04A9
:1064E0009A4342607047002A03D043680B434360DD
:1064F00002E043688B4343607047002905D042683F
:106500000123DB031A43426004E042680123DB03FA
:106510009A4342607047002905D042680123DB0599
:106520001A43426004E042680123DB059A4342605B
:1065300070474269120E1206426142690A43426183
:106540007047028AFF231B021A400282028A0A4312
:1065500002827047002904D0026802231A430260B5
:1065600003E0026802239A430260704782680323B3
:106570001B059A43826082680A4382607047002943
:1065800005D0426801231B051A43426004E04268BB
:1065900001231B059A4342607047426803235B0551
:1065A0009A43426042680A4342607047CA05D20D6E
:1065B000028570470146888CC005C00D704742684F
:1065C0001202120A426042680B061A434260704788
:1065D000002905D0026801235B031A43026004E02E
:1065E000026801235B039A4302607047026801233B
:1065F000DB029A43026002680A4302607047426805
:1066000010239A43426042680A43426070474268DE
:1066100020239A43426042680A434260704700293F
:1066200005D0426801239B031A43426004E042689C
:1066300001239B039A4342607047002904D082687B
:1066400008231A43826003E0826808239A43826029
:106650007047028AD2B20282028A0B021A43028275
:106660007047002904D0826820231A43826003E027
:10667000826820239A4382607047002904D0826890
:1066800010231A43826003E0826810239A438260D9
:106690007047826807235B049A43826082684B04D8
:1066A0001A438260704700000038014000440040F7
:1066B00000480040004C0040F3E9FFFFF0FF0000FD
:1066C00042691202120A426142690B061A43426190
:1066D0007047826804239A43826082680A4382601A
:1066E0007047002904D0826802231A43826003E0C5
:1066F000826802239A4382607047002905D082682D
:1067000001239B031A43826004E0826801239B03F8
:106710009A438260704782680123DB039A43826058
:1067200082680A438260704702681F235B059A43B0
:10673000026002684B051A430260704702681F231B
:106740001B049A43026002680B041A4302607047FC
:10675000002A03D083680B43836002E083688B4385
:1067600083607047826801235B039A43826082687A
:106770000A4382607047F8B503460024002600965D
:106780000025002018460E04340ECEB200960127D4
:10679000009EB7403D46022C01D1001D02E0032CB3
:1067A00000D10830002A03D006682E43066002E0BC
:1067B0000668AE430660F8BD002A03D0038B0B4386
:1067C000038302E0038B8B430383704782680123BA
:1067D0001B039A43826082680A43826070470246C4
:1067E0000020D3690B40002B01D0012000E00020E5
:1067F00070470162704770B502460B4600240021C5
:10680000002500201E04350ED9B201268E403146E7
:10681000012D02D11668314006E0022D02D15668E2
:10682000314001E0966831401C0C0126A6403446F8
:10683000D6693440002903D0002C01D0012000E0AB
:10684000002070BD10B5002300220B0C01249C40D9
:106850002246026210BD00000CB50020019000909D
:1068600011205F4908605F4840685E4948600846FB
:1068700040684860084640687F21C90388435949F9
:106880004860084640680521C904084355494860E6
:10689000084600680121090608435249086000BF04
:1068A000504800680121490608400028F8D04D48AA
:1068B0004068800880004B494860084640680221D3
:1068C00008434849486000BF464840680C210840DA
:1068D0000828F9D10CBD10B54248006801210843D1
:1068E00040490860084640683F4908403D494860C3
:1068F000084600683D4908403A4908600846006873
:1069000001218904884337490860084640683F21CF
:1069100009048843334948600846C06A00090001F9
:10692000C8620846006BFF21543188432D49086333
:106930000846406B40084000486300208860FFF72D
:106940008BFF10BDF8B50025002400260027254840
:1069500040680C2108400546002D04D0042D06D0C7
:10696000082D2AD107E022482249086029E0204862
:106970002049086025E01B4840680F218904084031
:106980000446184840680321C90308400646A00C85
:10699000841C002E04D118486043164908600BE09F
:1069A0001048C06A0007000F471C3946104800F025
:1069B00059F960430F49086003E00D480D4908602C
:1069C00000BF00BF07484068F021084000090B499C
:1069D0000D5C08480068E84006490860F8BD000002
:1069E00000200240001002400CB8FFF8FFFFF6FE46
:1069F00000127A00C400002000093D00C8000020F9
:106A00001CB50121C804FFF75FFB01204003009083
:106A1000012168460171002181710121C1710321A9
:106A2000417169460648FEF759FF1CBD012805D192
:106A30000349898A42035140014A9182704700000C
:106A40000008004800BF704700BF324AD269802367
:106A50001A40002AF9D02F4B20331881704710B507
:106A60008AB0044601214804FFF72EFB0121880368
:106A7000FFF738FB01220921C806FEF7B8FF012203
:106A80000A210920C006FEF7B2FF03204002089049
:106A9000022108A8017103214171002181710121A6
:106AA000C17108A90920C006FEF718FF0294002052
:106AB00003900490059007900C20069002A91548B9
:106AC000FFF734FC012214491248FFF754FE01215C
:106AD0001048FFF7BAFC1B21684601710321417180
:106AE0000121817101A8FEF7B1FF0AB010BD10B5F8
:106AF000002409490748FFF77EFE002808D0054812
:106B0000FFF758FDC4B2312C02D1012003490870AF
:106B100010BD00000038014005010500DC00002028
:106B200070B504460D46FEF75AFB2046FEF799FB6A
:106B300029462046FEF70FFCFEF75DFB70BD0146BF
:106B40000888704710B5002400BF09E0A0002B4959
:106B500040180068A1000122520789180860641CCF
:106B6000302CF3D301210846FFF7BCFA0320FFF7CE
:106B700043FB10BD002108E0002201E0531C9AB243
:106B80001F4B9A42FADB4B1C99B28142F4DB7047EF
:106B9000FFF7D8FFFFF734FFE1200002FFF75FFFA8
:106BA000012251031748FEF71AFF26E01648007825
:106BB00001280FD100201449087014A000F044F8F7
:106BC00019491A48FFF7ACFF6420FFF7D3FF1848B4
:106BD0001849C860012251030A48FEF700FF7D20D2
:106BE000C000FFF7C7FF0022012149030548FEF757
:106BF000F6FE7D20C000FFF7BDFFD7E7005000087C
:106C0000B012000000080048DC000020CAD5B5BD65
:106C1000BCD3C3DCCEC4BCFEBFAACABCC9FDBCB6D3
:106C20002E2E2E2E2E0D0A00AAAA0000384A000889
:106C30000400FA0500ED00E0704700BFFEE7704772
:106C400070477047704700000FB4054910B503AA9C
:106C5000029800F0B9F810BC08BC04B01847000056
:106C6000D8000020002203098B422CD3030A8B4258
:106C700011D300239C464EE003460B433CD4002234
:106C800043088B4231D303098B421CD3030A8B4246
:106C900001D394463FE0C3098B4201D3CB01C01A14
:106CA000524183098B4201D38B01C01A52414309DF
:106CB0008B4201D34B01C01A524103098B4201D3CD
:106CC0000B01C01A5241C3088B4201D3CB00C01A3A
:106CD000524183088B4201D38B00C01A52414308B2
:106CE0008B4201D34B00C01A5241411A00D20146D7
:106CF0005241104670475DE0CA0F00D04942031070
:106D000000D34042534000229C4603098B422DD3BE
:106D1000030A8B4212D3FC22890112BA030A8B4266
:106D20000CD3890192118B4208D3890192118B42B5
:106D300004D389013AD0921100E08909C3098B423A
:106D400001D3CB01C01A524183098B4201D38B017D
:106D5000C01A524143098B4201D34B01C01A524120
:106D600003098B4201D30B01C01A5241C3088B4265
:106D700001D3CB00C01A524183088B4201D38B0050
:106D8000C01A5241D9D243088B4201D34B00C01ADA
:106D90005241411A00D20146634652415B101046EF
:106DA00001D34042002B00D54942704763465B1037
:106DB00000D3404201B50020C046C04602BD704726
:106DC0007047704770470000084B70B50D467B4414
:106DD00000F013F80446284600F022F8002802D0FC
:106DE0000020C04370BD204670BD000077FCFFFF4F
:106DF00001694A1C02610878704700B58FB00291A2
:106E000000210591054901937944039111460490AD
:106E1000684600F028F80FB000BD0000E5FFFFFF56
:106E2000C068802108407047754600F035F8AE46CE
:106E3000050069465346C008C000854618B020B515
:106E4000FEF794F960BC00274908B6460026C0C585
:106E5000C0C5C0C5C0C5C0C5C0C5C0C5C0C5403D12
:106E600049008D467047F8B506460024476880689B
:106E700000903046F56803E00099B847641C30463E
:106E8000A8470028F8D12046F8BD0446C046C046B1
:106E90002046FEF75AF9000000487047E000002045
:106EA000C06E0008B40000202C000000F85000085C
:106EB000EC6E0008E000002060060000145100089D
:106EC0000000000001020304010203040607080990
:106ED00000127A000000000000000000010203041C
:0C6EE00006070809000000000000000088
:04000005080050B5EA
:00000001FF
