:020000040800F2
:1000000000040020850300089503000897030008FA
:1000100000000000000000000000000000000000E0
:100020000000000000000000000000009B0300082A
:1000300000000000000000009D0300089F0300086E
:100040008302000800000000630300086F0300083B
:10005000AD030008AF030008B1030008B3030008B4
:1000600000000000B5030008B7030008B90300084A
:10007000BB030008BD030008BF0300080000000028
:10008000C10300080000000000000000C3030008D6
:10009000C5030008C7030008C9030008CB03000814
:1000A000CD030008CF030008D1030008D3030008E4
:1000B000D503000880B5394800680121014337485D
:1000C00001603748006837490140354801603348CE
:1000D00000683549014031480160304800683349C3
:1000E00001402E4801602E480068314901402C48EB
:1000F0000160304800680F2188432E4908602E486F
:1001000000682E4901402C4801602D4800680121FB
:1001100088432B49086000202A49086000F001F854
:1001200001BD80B5002000900020009011202649DC
:1001300008601B4800681A49086019480068184997
:1001400008601748006821490140154801601448BB
:100150000068A02189030143114801600F4800682D
:100160008021490401430D4801600C48006880016A
:10017000FBD50B48006803218843094908600848FB
:1001800000680221014306480160054800680C210F
:1001900001400829F9D101BD000000000010024013
:1001A000041002400CB8FFF8FFFFF6FEFFFFFBFF54
:1001B000FFFFC0FF2C10024030100240ACFEFFFFDA
:1001C000341002400810024000200240FF7FC0FFB0
:1001D00070B5002200230024002246E00123934052
:1001E0000C681C409C423FD10B79012B02D00B794B
:1001F000022B19D183680324150002267543AC40F5
:10020000A343836083684C79150002267543AC4094
:100210001C438460838801249440A34383808388A3
:100220008C7994401C4384800368032415000226C3
:100230007543AC40A343036003680C7915000226A4
:100240007543AC401C430460C368032415000226B8
:100250007543AC40A343C360C368CC791500022644
:100260007543AC401C43C460521C102AB6D370BD09
:1002700000B5D2B2002A02D089B2816100E00185C6
:1002800000BDFEE780B500F029F801228021890138
:100290001048FFF7EDFFFA20800000F00BF8002275
:1002A000802189010B48FFF7E3FFFA20800000F06E
:1002B00001F8EAE700B5002105E0521C92B2064BB6
:1002C0009A42FADB491C89B280B2814201D20022F3
:1002D000F4E700BD00080048B012000000B583B08C
:1002E00001218020000300F017F880208001009099
:1002F000012069460871002069468871012069461D
:10030000C87103206946487169460248FFF760FFDB
:1003100007BD00000008004800B5C9B2002905D09B
:100320000549096808430449086004E0024909686E
:1003300081430148016000BD1410024000F00BF839
:10034000002801D0C046C0460020C046C046FFF786
:1003500099FF00F002F80120704780B500F002F824
:1003600001BDFEE70746384600F002F8FBE7FEE76E
:1003700080B5C046C046024A11001820ABBEFBE75C
:10038000260002000148804701480047B5000008E8
:10039000A1030008704700B5FEE77047704770473B
:1003A000C046C046C046C046FFF7C8FFFEE7FEE7AE
:1003B000FEE7FEE7FEE7FEE7FEE7FEE7FEE7FEE715
:1003C000FEE7FEE7FEE7FEE7FEE7FEE7FEE7FEE705
:0603D000FEE7FEE7FEE778
:04000005080003A14B
:00000001FF
