:020000040800F2
:10000000A80E00203D0400086304000865040008F1
:1000100000000000000000000000000000000000E0
:10002000000000000000000000000000670400085D
:100030000000000000000000690400086B040008D4
:100040006D0400086D0400086D0400086D040008CC
:100050006D0400086D0400086D0400086D040008BC
:100060006D0400086D0400086D0400086D040008AC
:100070006D0400086D0400086D0400086D0400089C
:100080006D0400086D040008000000006D04000805
:100090006D0400086D0400086D0400086D0400087C
:1000A0006D0400086D0400086D0400086D0400086C
:1000B0006D040008000000006D040008000000004E
:1000C00000F002F800F03EF80CA030C80838241800
:1000D0002D18A246671EAB4654465D46AC4201D180
:1000E00000F030F87E460F3E0FCCB6460126334274
:1000F00000D0FB1AA246AB46334318471433000026
:1001000034330000103A02D378C878C1FAD85207C5
:1001100001D330C830C101D504680C6070470000BD
:100120000023002400250026103A01D378C1FBD813
:10013000520700D330C100D50B6070471FB51FBDFB
:1001400010B510BD03F043F81146FFF7F7FF00F0BC
:100150002FF903F05BF803B4FFF7F2FF03BC01F0E3
:10016000ADFC000070B505460C46164602E00FCC0B
:100170000FC5103E102EFAD2082E02D303CC03C5B1
:10018000083E042E07D301CC01C5361F03E02178B9
:100190002970641C6D1C761EF9D270BD0CB5002050
:1001A00001900090734800680121090408437149D7
:1001B000086000BF6F4800680121490408400090B2
:1001C0000198401C01900098002804D105210903E2
:1001D00001988842EED1674800680121490408402F
:1001E000002802D00120009001E00020009000983B
:1001F000012839D11120604908605E4840685D4996
:100200004860084640684860084640687F21C90346
:10021000884358494860084640681121090408434A
:1002200054494860084600680121090608435149BD
:10023000086000BF4F4800680121490608400028B7
:10024000F8D04C484068800880004A494860084619
:100250004068022108434749486000BF454840685C
:100260000C2108400828F9D10CBD10B541480068A0
:10027000012108433F490860084640683F4908405B
:100280003C494860084600683D49084039490860D3
:1002900008460068012189048843364908600846F9
:1002A00040683F2109048843324948600846C06AD3
:1002B00000090001C8620846006BFF2154318843E1
:1002C0002C4908630846406B400840004863002002
:1002D0008860FFF763FF10BDF8B5002500240026F5
:1002E0000027244840680C2108400546002D04D012
:1002F000042D06D0082D2AD107E0224822490860A3
:1003000029E020482049086025E01A4840680F216C
:10031000890408400446174840680321C90308407F
:100320000646A00C841C002E04D1184860431649D0
:1003300008600BE00F48C06A0007000F471C3946F1
:10034000104802F093FE60430F49086003E00D4837
:100350000D49086000BF00BF06484068F021084012
:1003600000090B490D5C08480068E8400649086030
:10037000F8BD000000100240002002400CB8FFF859
:10038000FFFFF6FE00127A000000002000093D0089
:1003900004000020002108E0002201E0531C9AB272
:1003A0001E4B9A42FADB4B1C99B28142F4DB704738
:1003B000002400BF01F04EFDE120000201F08BFBA4
:1003C000002201214903164800F041F925E01548B3
:1003D00001F0B2FC04461448844202D101F0ABFDA6
:1003E0001BE00E48D830FFF7D5FF104800681049D1
:1003F00008400121490788420FD10C4840680D4947
:100400000860084600680C4908600849086880F3DD
:10041000088800BF084800688047D8E7B01200008D
:1004200000080048384A0008AAAA00000050000846
:100430000000FE2F2C000020280000200F4880F331
:1004400008880F480168090E0E4A914205D10E48EE
:100450000E4901600E480F4901600F4880470F4860
:100460000047FEE7FEE7FEE7FEE7FEE7FEE70000E7
:100470000B480C490C4A0D4B70470000A80E002099
:10048000040000001F0000001810024001000000DE
:1004900000000140000000006B020008C1000008DD
:1004A000A8080020A80E0020A80A0020A80A002002
:1004B00010B504460920C006844209D10121480430
:1004C00000F040FC00210120400400F03BFC3CE037
:1004D0007448844208D10121000200F033FC00215D
:1004E000200200F02FFC30E06F48844208D1012147
:1004F000000200F027FC0021200200F023FC24E091
:100500006A48844209D10121080500F01BFC002142
:100510000120000500F016FC17E06548844208D170
:100520000121400200F00EFC0021600200F00AFCF4
:100530000BE06048844208D10121880500F002FCEC
:1005400000210120800500F0FDFB10BDF0B50A463A
:1005500000210023002400BF3DE001258D402B46F3
:1005600015681D402C469C4234D11579012D02D0CE
:100570001579022D16D185684F000326BE40B5437C
:10058000856055794E00B54086683543856085881D
:1005900001268E40B5438580858896798E40B6B217
:1005A0003543858005684F000326BE40B54305608E
:1005B00015794E00B540066835430560C5684F00A3
:1005C0000326BE40B543C560D5794E00B540C66828
:1005D0003543C560491C1029BFD3F0BD36490160C1
:1005E000002101710121417100218171C1717047A8
:1005F00008B5012212040092009A0A430092009A60
:10060000C261C161009AC261C2690092C26900926E
:1006100008BD02460020138A0B40002B01D00120A8
:1006200000E0002070470146088A7047024600201B
:10063000938A0B40002B01D0012000E0002070477E
:100640000146888A70478161704701857047002A9A
:1006500001D0816100E00185704781827047F0B56B
:10066000002300244D07EE0E1546B5402B46CD1055
:10067000AE0005462035AD594E07F70E0F26BE4099
:10068000B543CE10B60007462037BD51CD10AE00A1
:100690003D46AD591D432C46CD10AD003E4674512C
:1006A000F0BD00000004004800080048000C0048AD
:1006B0000010004800140048FFFF0000FE480068DA
:1006C00001210843FC49086008464068FB4908408E
:1006D000F949486008460068F9490840F649086049
:1006E00008460068012189048843F34908600846E8
:1006F00040683F2109048843EF4948600846C06AC2
:1007000000090001C8620846006BEE490840EA494A
:1007100008630846406B400840004863002088603A
:1007200070470021E44A917011468870704710B5F7
:1007300002460021002300205111002902D1DE4C85
:1007400023680BE0012902D1DB4C236A06E0022971
:1007500002D1D94C636A01E0D74C636BD106C90E54
:1007600001248C401C40002C01D0012000E000201E
:1007700010BD38B5002000900024002500BF1120D6
:10078000FFF7D5FF05460098401C0090052109039E
:100790000098884201D0002DF1D01120FFF7C7FF4B
:1007A000002801D0012400E00024204638BD014685
:1007B0000020C14A1068F82302469A431046CA0036
:1007C0001043BD4A10607047002806D0BA49096836
:1007D00001221143B84A116005E0B7490968490888
:1007E0004900B54A1160704701460020B24A506B7B
:1007F000F82302469A431046CA001043AE4A50639B
:100800007047002806D0AC49496B01221143AA4A1F
:10081000516305E0A849496B49084900A64A51635C
:100820007047002806D0A449496B04229143A24A8C
:10083000516305E0A049496B042211439E4A51636C
:1008400070479D49096A490849009B4A116211464F
:10085000096A04229143984A11621146096A0143C8
:10086000116270479449096A18229143924A1162B1
:100870001146096A014311627047002806D08E496B
:10088000496A012211438C4A516205E08A49496A4A
:1008900049084900884A51627047874A52687B2359
:1008A000DB039A43844B5A601A46526803460B4353
:1008B0001A43814B5A607047002807D07E49096867
:1008C0000122120611437C4A116006E07A49096848
:1008D000012212069143784A11607047002807D020
:1008E0007549496B012212041143734A516306E0B2
:1008F0007149496B0122120491436F4A5163704759
:10090000014600206C4AD06A0009000102460A43F1
:100910001046694AD0627047002807D066490968C6
:100920000122D2041143644A116006E06249096859
:100930000122D2049143604A116070475E49C87138
:100940007047014600205C4A5068800880000246DB
:100950000A431046584A50607047574840680C2177
:100960000840704701460020534A5068F023024671
:100970009A43104602460A4310464F4A5060704759
:10098000014600204C4A506807231B0202469A4346
:10099000104602460A431046474A5060704746498F
:1009A0004968012292039143434A516011464968C4
:1009B00082B21143404A51601146096B921591432E
:1009C0003D4A11631146096B020C11433A4A116307
:1009D00070473949096B40229143374A11631146E8
:1009E000096B0143116370473349096B102291432E
:1009F000314A11631146096B0143116370470021AD
:100A0000010F012906D12C4A126B920892002A4B41
:100A10001A6310E0022907D1274A126B03231B0433
:100A20009A43254B1A6306E0234A126B03239B0467
:100A30009A43214B1A63204A126B02431E4B1A63DE
:100A400070471D49096B802291431B4A116311466F
:100A5000096B014311637047FEB50446002500266B
:100A600000200290019000900027134840680C215C
:100A700008400546002D06D0042D07D0082D08D0CB
:100A80000C2D39D135E01048206038E00E48206048
:100A900035E0094840680F218904084006460648A9
:100AA00040680321C90308400290B00C861C0298DC
:100AB000002810D105480BE0001002400CB8FFF8E8
:100AC000FFFFF6FEACFEF0FF00127A0000093D00C9
:100AD000374647430BE0C248C06A0007000F401C7E
:100AE0000190C048019902F0C1FA7043074627609F
:100AF00005E0BD48206002E0BA48206000BF00BFAA
:100B0000B7484068F021084005462D09B748405DC8
:100B1000009020680099C8406060B1484068072193
:100B20000902084005462D0AB048405D0090616802
:100B30000098C140A160AA48006BFF210131084024
:100B4000884202D0AA48E0600DE0A5484068012133
:100B500089030840884203D0A0684008E06002E0B2
:100B6000A0688008E0609E48006B40210840402853
:100B700002D0A048206102E00120C0032061984813
:100B8000006B10210840102802D09648606101E0F7
:100B9000206860619248006B8007800F002802D1B6
:100BA000A068A06119E08E48006B8007800F0128C3
:100BB00002D12068A06110E08948006B8007800F97
:100BC000022802D18003A06107E08548006B8007FE
:100BD000800F032801D18348A0618148006B032165
:100BE00009040840002802D1A068E06120E07C48A8
:100BF000006B03210904084001210904884202D145
:100C00002068E06114E07648006B03210904084085
:100C100001214904884202D18010E06108E0704857
:100C2000006B032109040840884201D16D48E0614E
:100C30006B48006B032189040840002802D1A0689A
:100C4000206220E06648006B0321890408400121EE
:100C50008904884202D12068206214E06048006B59
:100C60000321890408400121C904884202D10011EE
:100C7000206208E05A48006B03218904084088423A
:100C800001D1584820625648006B802108408028D6
:100C900002D05548606200E06762FEBD5049096AB3
:100CA00001434F4A11627047002807D04C49096A36
:100CB0000122D20311434A4A116206E04849096AF7
:100CC0000122D2039143464A11627047002807D09F
:100CD0004349096A012212041143414A116206E0A4
:100CE0003F49096A0122120491433D4A116270474B
:100CF000002905D03A4A52690243394B5A6104E04F
:100D0000374A52698243364B5A617047002905D0F1
:100D1000334A92690243324B9A6104E0304A926945
:100D200082432F4B9A617047002905D02C4AD26923
:100D300002432B4BDA6104E0294AD2698243284BF3
:100D4000DA617047002905D0254A926A0243244B94
:100D50009A6204E0224A926A8243214B9A62704767
:100D6000002905D01E4AD26802431D4BDA6004E018
:100D70001B4AD26882431A4BDA607047002905D0BB
:100D8000174A12690243164B1A6104E0144A1269A9
:100D90008243134B1A617047002905D0104A527ADA
:100DA00002430F4B5A7204E00D4A527A82430C4BB5
:100DB0005A7270470A48406A0121090608430849E7
:100DC0004862704701460020054A92680A40002A9E
:100DD00001D0012000E0002070470149887270476F
:100DE0000010024000127A00006CDC0214000020A7
:100DF000809FD5001280000010B50446F848844258
:100E000009D101218803FFF7ABFF002101208003F6
:100E1000FFF7A6FF56E0F348844209D101214804B8
:100E2000FFF7ACFF002101204004FFF7A7FF49E0D6
:100E3000ED48844209D101218804FFF79FFF00217A
:100E400001208004FFF79AFF3CE0E848844209D182
:100E50000121C804FFF792FF00210120C004FFF721
:100E60008DFF2FE0E248844209D101210805FFF7F8
:100E700085FF002101200005FFF780FF22E0DD480B
:100E8000844208D101212020FFF76AFF00212020A1
:100E9000FFF766FF16E0D848844208D101214020C0
:100EA000FFF75EFF00214020FFF75AFF0AE0D3481A
:100EB000844207D101218020FFF752FF00218020CA
:100EC000FFF74EFF10BDF0B58BB004460D4600276E
:100ED00000200A90002620684008400020606668D4
:100EE00003210903304688430646A8680643666026
:100EF0002668C3480640E9686868084329690843CA
:100F000006432660A6680321090230468843064648
:100F100068690643A6606846FFF79EFDB0488442B4
:100F200002D106980A900DE0AE48844202D107989B
:100F30000A9007E0AC48844202D108980A9001E088
:100F400002980A9020680121C903084000280CD0AB
:100F500029680A9A500002F089F8074629680A9A17
:100F6000500002F083F80E4609E029680A9802F062
:100F70007DF8074629680A9802F078F80E46286836
:100F80004008B04200D87F1C20680121C9030840F6
:100F9000002806D03807460F38469A4908403043A3
:100FA0000746A7810BB0F0BD4B21C90101600021AC
:100FB00041608160C1600C21016100214161704785
:100FC00010B5002242680F2424021346A3431A4698
:100FD0004C680B6823438C682343CC6823431A4333
:100FE000426010BD0021016041608160C1607047B6
:100FF000002904D0026801231A43026003E002685A
:101000005208520002607047002A03D003680B4365
:10101000036002E003688B4303607047002905D03A
:1010200002680123DB031A43026004E00268012323
:10103000DB039A4302607047002905D082680123D0
:10104000DB021A43826004E082680123DB029A43D8
:1010500082607047002905D042680123DB041A43EF
:10106000426004E042680123DB049A434260704717
:10107000002905D0426801239B041A43426004E022
:10108000426801239B049A4342607047002A03D0C0
:1010900043680B43436002E043688B4343607047FF
:1010A000002905D042680123DB031A43426004E0B3
:1010B00042680123DB039A4342607047002905D050
:1010C00042680123DB051A43426004E042680123C1
:1010D000DB059A43426070474269120E1206426174
:1010E00042690A4342617047028AFF231B021A4089
:1010F0000282028A0A4302827047002904D00268F1
:1011000002231A43026003E0026802239A4302604A
:101110007047826803231B059A43826082680A43F2
:1011200082607047002905D0426801231B051A43DD
:10113000426004E0426801231B059A434260704705
:10114000426803235B059A43426042680A43426057
:101150007047CA05D20D028570470146888CC005CC
:10116000C00D704742681202120A426042680B06C4
:101170001A4342607047002905D0026801235B03CF
:101180001A43026004E0026801235B039A43026091
:10119000704702680123DB029A43026002680A4337
:1011A00002607047426810239A43426042680A43D3
:1011B00042607047426820239A43426042680A4373
:1011C00042607047002905D0426801239B031A43FF
:1011D000426004E0426801239B039A4342607047E7
:1011E000003801400044004000480040004C0040EE
:1011F000005000400014014000180140001C014054
:10120000F3E9FFFFF0FF0000002904D08268082303
:101210001A43826003E0826808239A438260704721
:10122000028AD2B20282028A0B021A4302827047F9
:10123000002904D0826820231A43826003E0826878
:1012400020239A4382607047002904D082681023CB
:101250001A43826003E0826810239A4382607047D9
:10126000826807235B049A43826082684B041A43B6
:101270008260704742691202120A426142690B069B
:101280001A4342617047826804239A4382608268ED
:101290000A4382607047002904D0826802231A43FF
:1012A000826003E0826802239A43826070470029CB
:1012B00005D0826801239B031A43826004E08268A0
:1012C00001239B039A438260704782680123DB03FA
:1012D0009A43826082680A438260704702681F23D3
:1012E0005B059A43026002684B051A43026070472F
:1012F00002681F231B049A43026002680B041A430E
:1013000002607047002A03D083680B43836002E0C9
:1013100083688B4383607047826801235B039A4331
:10132000826082680A4382607047F8B503460024F1
:10133000002600960025002018460E04340ECEB27A
:1013400000960127009EB7403D46022C01D1001DAA
:1013500002E0032C00D10830002A03D006682E4397
:10136000066002E00668AE430660F8BD002A03D0BE
:10137000038B0B43038302E0038B8B430383704790
:10138000826801231B039A43826082680A43826059
:10139000704702460020D3690B40002B01D001208A
:1013A00000E0002070470162704770B502460B46AE
:1013B00000240021002500201E04350ED9B201268C
:1013C0008E403146012D02D11668314006E0022DD3
:1013D00002D15668314001E0966831401C0C01266C
:1013E000A6403446D6693440002903D0002C01D0F1
:1013F000012000E0002070BD10B5002300220B0C7E
:1014000001249C402246026210BD000001460020DB
:10141000FE4A10684008400002460A431046FB4A54
:1014200010607047002806D0F8490968102211435F
:10143000F64A116005E0F549096810229143F34A24
:10144000116070470020F1490968202211400029ED
:1014500001D0012000E000207047EC4800698021A5
:101460000840002804D0EA48E8494860E948486054
:101470007047E648006980210843E44908617047E5
:101480000420E249C968C907C90F002901D0012019
:1014900010E0DE49C96810221140002901D0022065
:1014A00008E0DA49C96804221140002901D003206C
:1014B00000E00420704710B503460424FFF7E0FF66
:1014C000044603E0FFF7DCFF04465B1E012C01D15C
:1014D000002BF7D1002B00D10524204610BD30B5DC
:1014E000044604250B200004FFF7E5FF0546042D04
:1014F00017D1C648006902210843C449086108465B
:101500004461006940210843C04908610B20000480
:10151000FFF7D1FF0546BD48006902218843BB495A
:101520000861284630BD10B504240B200004FFF7E5
:10153000C2FF0446042C16D1B448006904210843B4
:10154000B24908610846006940210843AF49086173
:101550000B200004FFF7AFFF0446AC4800690421EC
:101560008843AA490861204610BD78B506460C4656
:101570000425002000900B200004FFF79CFF054687
:10158000042D24D1A1480069012108439F49086125
:1015900034800B200004FFF78EFF0546042D10D188
:1015A000B01C0090200C009908800B200004FFF76D
:1015B00082FF05469548006940084000934908614C
:1015C00005E09248006940084000904908612846BB
:1015D00078BD70B504460D4604260B200004FFF7C5
:1015E0006AFF0646042E11D188480069012108438C
:1015F0008649086125800B200004FFF75CFF064642
:10160000824800694008400080490861304670BD4A
:101610007E480069012149020840002804D17C4825
:101620007A4988607B488860704778480069012162
:10163000490288437549086170477448006901216F
:101640004903084371490861704700206F49C9691F
:1016500006221140002901D0012000E0002070473F
:1016600030B5AA250424FFF7F0FF002800D000259C
:101670000B200004FFF71FFF0446042C36D16348FB
:10168000006920210843614908610846006940213A
:1016900008435E4908610B200004FFF70CFF044675
:1016A000042C1BD1594800692021884357490861FF
:1016B00008460069102108435449086156480580CE
:1016C0000B200004FFF7F7FE0446052C0ED04F4810
:1016D0000069102188434D49086107E0052C05D0B9
:1016E0004A4800691021884348490861204630BDB6
:1016F000FCB50446494E374630460190009004251B
:10170000E443E6B22004070E2002000E0190200EF2
:1017100000900B200004FFF7CEFE0546042D3BD1C0
:101720003A4800691021084338490861FF2E06D065
:10173000394806810B200004FFF7BDFE0546042D45
:1017400008D1FF2F06D0344847810B200004FFF753
:10175000B2FE0546042D0AD10198FF2807D02E4974
:10176000019888810B200004FFF7A5FE0546042D93
:101770000AD10098FF2807D027490098C8810B207C
:101780000004FFF798FE0546052D05D01F480069A7
:10179000102188431D4908612846FCBD30B5054627
:1017A00004240B200004FFF786FE0446042C41D1DC
:1017B0001648006920210843144908610846006959
:1017C00040210843114908610B200004FFF773FE14
:1017D0000446042C26D10D480069202188430B497A
:1017E00008610846006910210843084908610A4851
:1017F00005800B200004FFF75EFE0446052C19D07F
:101800000248006910218843004909E00020024095
:1018100023016745AB89EFCD00F8FF1FFFFF0000F4
:10182000086107E0052C05D0A24800692021884303
:10183000A0490861204630BDF0B505460E46174662
:1018400004240B200004FFF736FE0446042C19D1B3
:10185000984800691021084396490861284630439A
:10186000F82139430843944948800B200004FFF7CE
:1018700022FE0446052C05D08E48006910218843BD
:101880008C4908612046F0BD30B5054604240B2084
:101890000004FFF710FE0446042C16D185480069A9
:1018A0001021084383490861EF202843824948807A
:1018B0000B200004FFF7FFFD0446052C05D07D48F2
:1018C0000069102188437B490861204630BD30B54E
:1018D000054604240B200004FFF7EDFD0446042C0C
:1018E00016D1744800691021084372490861F72035
:1018F0002843714948800B200004FFF7DCFD0446B3
:10190000052C05D06B48006910218843694908619E
:10191000204630BD30B5054604240B200004FFF7F7
:10192000CAFD0446042C16D1624800691021084300
:10193000604908617F2028435F4948800B200004EC
:10194000FFF7B9FD0446052C05D05A48006910215F
:10195000884358490861204630BD30B50546042407
:101960000B200004FFF7A7FD0446042C16D15148B4
:101970000069102108434F490861DF2028434E4980
:1019800048800B200004FFF796FD0446052C05D087
:10199000484800691021884346490861204630BD07
:1019A00030B5054604240B200004FFF784FD0446EF
:1019B000042C16D13F480069102108433D490861B5
:1019C000BF2028433C4948800B200004FFF773FDEB
:1019D0000446052C05D03748006910218843354955
:1019E0000861204630BD30B5054604240B200004B4
:1019F000FFF761FD0446042C14D12E480069102124
:101A000008432C4908612C4845800B200004FFF74F
:101A100052FD0446052C05D0264800691021884354
:101A200024490861204630BD70B505460E460424A1
:101A30000B200004FFF73FFD0446042C13D11D4882
:101A40000069102108431B4908612E800B20000407
:101A5000FFF731FD0446052C05D01648006910211A
:101A6000884314490861204670BD1248C0690004CB
:101A7000000E70470F48006A7047002905D00D4AD4
:101A8000126902430B4B1A6104E00A4A126982434D
:101A9000084B1A61704701460020064AD2680A4086
:101AA000002A01D0012000E0002070470149C860F1
:101AB000704700000020024000F8FF1F00BF704781
:101AC00000BF9B4AD26980231A40002AF9D0984B64
:101AD00020331881704710B588B0044601214804AE
:101AE000FFF706F901218803FFF710F90122092108
:101AF000C806FEF7B4FD01220A210920C006FEF740
:101B0000AEFD0320400206900221684601770321C2
:101B10004177002181770121C17706A90920C006FC
:101B2000FEF714FD009400200190029003900590B0
:101B30000C20049069467E48FFF7C5F901217C48D6
:101B4000FFF756FA08B010BD10B504462146784894
:101B5000FFF7FFFA00BF80217548FFF71AFC002845
:101B6000F9D010BD10B5044603E02078FFF7ECFF74
:101B7000641C20780028F8D110BD10B5044620213F
:101B80006B48FFF706FC002805D06948FFF7E5FA27
:101B90002070012010BD0020FCE708B50020009057
:101BA00005E06846FFF7E9FF002800D000E0F8E70D
:101BB00000BF6846007808BDFEB504460D465D4886
:101BC0000190002700200090002628E02846019977
:101BD00001F04CFA3030C2B238467F1C22542846FD
:101BE000019901F043FA0D460A21019801F03EFAED
:101BF0000190781E205C302801D1012000E00020F7
:101C00000099002901D1012100E0002108400028AD
:101C100001D0002702E00098401C0090761C0A2E9C
:101C2000D4D3FEBD70B502460C460021002500232A
:101C30001078302844D15078782802D0507858282D
:101C40003ED19078002800D170BD022131E0505C77
:101C5000002802D1236001252DE0505C412802DBE1
:101C6000505C46280BDD505C612802DB505C662826
:101C700005DD505C302819DB505C392816DC505CDF
:101C8000302805DB505C392802DC505C30380AE033
:101C9000505C412805DB505C462802DC505C37383C
:101CA00001E0505C57381E01831901E0002502E075
:101CB000491C0B29CBD300BF0B2936D3002534E0B8
:101CC00000212CE0505C002802D12360012528E08F
:101CD000505C6B2802D0505C4B2805D1002903D002
:101CE0009B02236001251CE0505C6D2802D0505CF3
:101CF0004D2805D1002903D01B052360012510E0E4
:101D0000505C302808DB505C392805DC0A20584339
:101D1000565C303E831901E0002502E0491C0B2986
:101D2000D0D300BF0B2900D3002528468CE7000044
:101D30000038014000CA9A3B01460888704710B538
:101D4000FFF78BFB3520FFF7B1FE10BD70B50546E0
:101D50002C4609E02046FFF7C2FB042802D100020E
:101D6000241801E0012070BD37488442F2D90020D8
:101D7000F9E7FFB581B004460E4617460025FFF788
:101D80006CFB00BF28E03148006881000498814264
:101D900007D300202D490860FFF76BFB002005B03A
:101DA000F0BDAA00B1582068FFF7DFFB04280BD173
:101DB00020680068A9007158884201D00220EEE72F
:101DC0002068001D206001E00120E8E76D1C1F482D
:101DD0000068401C1D490860BD4203D220681C49B0
:101DE0008842D0D9FFF745FB0020D8E710B5FFF7B0
:101DF00041FE01461F20C043884310BD70B500243A
:101E0000002601253520FFF751FEFFF733FE064679
:101E1000FFF7ECFF002815D0FFF7FAFBFFF720FCD7
:101E200005461F20C04330430446601C002803D0F1
:101E3000E043FFF75DFC0546042D01D1002070BD95
:101E40000120FCE70220FAE700F800082400002047
:101E5000FBFF00081CB50121C804FEF749FF012063
:101E60004003009001216846017100218171012128
:101E7000C1710321417169460648FEF767FB1CBD2D
:101E8000012805D10349898A42035140014A9182C0
:101E900070470000000800483EB500200090019007
:101EA00002900024514800F0A5FA0446002C17DDEA
:101EB0004F48FFF757FE4F48FFF754FE214668464C
:101EC000FFF77AFE4CA0FFF74DFE6846FFF74AFE8B
:101ED0004CA0FFF747FE4EA0FFF744FE00203EBD9A
:101EE000601C002801D10120F9E7A01C002801D1C5
:101EF0000220F4E7E01C002801D10320EFE70420D2
:101F0000EDE710B5002448A0FFF72CFEFFF745FED3
:101F100043280FD10B2212034AA1504800F0F1FBD5
:101F20000446002C03D04EA0FFF71CFE02E057A091
:101F3000FFF718FE10BD10B500245C48FFF712FE35
:101F40005B48FFF70FFE5B48FFF70CFE5A48FFF7B0
:101F500009FE5848FFF706FE5848FFF703FE5348AE
:101F6000FFF700FE56A0FFF7FDFD3EE056A0FFF78D
:101F7000F9FD65A0FFF7F6FD73A0FFF7F3FD82A062
:101F8000FFF7F0FD90480068002802D08FA0FFF70F
:101F9000E9FD9EA0FFF7E6FDFFF7FFFD0446312CAB
:101FA00023D1FFF779FF00281ED1FFF756FAA74883
:101FB000FFF795FAFFF75DFA28480068A449084042
:101FC000610788420FD125484068A2490860084649
:101FD0000068A14908602149086880F3088800BFAB
:101FE0009D480068804710BDFDE7BFE7480000201E
:101FF00040320008480400200A0D2053697A653AEF
:10200000200000002042797465730D0A0000000072
:102010002D2D2D2D2D2D2D2D2D2D2D2D2D2D2D2DF0
:102020002D2D2D0A000000000A0A0D53656C656312
:102030007420526563656976652046696C650A0D92
:102040000000000055706C6F61646564466C6173DC
:1020500068496D6167652E62696E00000050000876
:102060000A0D4572726F72204F63637572726564F8
:10207000207768696C65205472616E736D69747441
:10208000696E672046696C650A0D00000A0D466995
:102090006C652075706C6F61646564207375636333
:1020A00065737366756C6C79200A0D00C433000883
:1020B000E032000894320008783300082C3300081E
:1020C0000D0A0D0A000000000D0A3D3D3D3D3D3D5D
:1020D0003D3D3D3D3D3D3D3D3D3D3D3D204D6169ED
:1020E0006E204D656E75203D3D3D3D3D3D3D3D3D88
:1020F0003D3D3D3D3D3D3D3D3D3D3D3D3D3D3D3D10
:102100003D3D3D0D0A0A00002020446F776E6C6F44
:10211000616420496D61676520546F207468652093
:1021200053544D33324630787820496E7465726E60
:10213000616C20466C617368202D2D2D2D2D2D2D69
:1021400020310D0A0A000000202055706C6F616478
:1021500020496D6167652046726F6D207468652047
:1021600053544D33324630787820496E7465726E20
:10217000616C20466C617368202D2D2D2D2D2D2D29
:1021800020320D0A0A00000020204578656375742E
:102190006520546865204E65772050726F677261C4
:1021A0006D202D2D2D2D2D2D2D2D2D2D2D2D2D2D2C
:1021B0002D2D2D2D2D2D2D2D2D2D2D2D2D2D2D2D4F
:1021C00020330D0A0A00000030000020202044695E
:1021D0007361626C6520746865207772697465202C
:1021E00070726F74656374696F6E202D2D2D2D2DA7
:1021F0002D2D2D2D2D2D2D2D2D2D2D2D2D2D2D2D0F
:102200002D2D2D2D20340D0A0A0000003D3D3D3DB1
:102210003D3D3D3D3D3D3D3D3D3D3D3D3D3D3D3DEE
:102220003D3D3D3D3D3D3D3D3D3D3D3D3D3D3D3DDE
:102230003D3D3D3D3D3D3D3D3D3D3D3D3D3D3D3DCE
:102240003D3D3D3D3D3D0D0A0A000000384A000875
:102250000000FE2F2C0000202800002070B505464D
:102260000C4606E02846FFF788FC012801D1002033
:1022700070BD2046641E0028F4D1401EF8E710B55A
:1022800004462046FFF760FC002010BD10B5034651
:102290000C461946E21DF93200BF49005200FF20EA
:1022A00001301040002800D0491C012000040840E3
:1022B000002801D0FA4841400120000410400028C5
:1022C000EBD088B210BDF0B505460E460024AF191C
:1022D00005E029786D1CA0B2FFF7D8FF0446BD4287
:1022E000F7D3A0B20021FFF7D1FF0446204600211A
:1022F000FFF7CCFF04462046F0BD30B50246002370
:10230000541802E01578521CEB18A242FAD3D8B246
:1023100030BDF7B582B004460E46002030606846F6
:102320000499FFF79BFF002803D00020C04305B0AD
:10233000F0BD68460078182813D006DC012809D0C3
:10234000022809D0042821D109E041281BD06128A6
:102350001CD119E080251CE00125AD0219E0002008
:10236000E5E768460499FFF779FF002808D1684639
:102370000078182804D10020C04330600020D6E740
:102380000020C043D3E700BF0120D0E70020C043B6
:10239000CDE700BF68460078207001270AE0E01909
:1023A0000499FFF75BFF002802D00020C043BEE77E
:1023B000781C87B2681D8742F1DB6178A078FF2224
:1023C0005040814202D00020C043B0E72946E01CC3
:1023D000FFF779FF0190E81C205C0002291D615C79
:1023E00001430198814202D00020C0439FE735603D
:1023F00000209CE7F0B5FFB0FFB099B00646002181
:10240000FFA8016541658165C165049100F0AFFCDD
:10241000A4490391002108910691059100BF00276E
:10242000002107910C9600BF0122120509A911A8ED
:10243000FFF76FFF002802D0012873D1AFE0002121
:1024400006910998401C002802D001280ED107E00F
:102450000620FFF714FF00207FB07FB019B0F0BD59
:102460000620FFF70CFF0120079096E010A84079A6
:10247000F9B2884203D01520FFF701FF8DE0002F4D
:1024800051D110A8C079002845D0002511AC0334E3
:1024900005E0207829466D1C834A5054641C20783E
:1024A000002801D0FF2DF4DD002029466D1C7E4A56
:1024B00050540025641C05E0207829466D1C0DAAA7
:1024C0005054641C2078202801D00F2DF4DB00200C
:1024D00029466D1C0DAA505404A90DA8FFF7A2FBB4
:1024E00072490498884208D91820FFF7C8FE1820BE
:1024F000FFF7C5FE0020C043AEE7FEF7AEFF694818
:10250000FFF724FCFEF7B5FF0620FFF7B8FE4320D7
:10251000FFF7B5FE3EE00620FFF7B1FE012107916F
:1025200008913AE044E011A90331099A0C9800F0AF
:102530005CFD0B9600210A910BE0FFA950310B982E
:1025400000F03AFC0B98014610310B910A981030BC
:102550000A9009990A988842EFDB0296099881B29D
:10256000C8170191810F01980818821003A8049BD5
:102570000299FFF7FEFB002803D10620FFF77FFE3C
:1025800008E01820FFF77BFE1820FFF778FE0120F7
:10259000C04361E77F1C0121059100BF1DE01820A9
:1025A000FFF76DFE1820FFF76AFE0220C04353E7D5
:1025B0000598002802DD0698401C0690069805281C
:1025C00007DD1820FFF75BFE1820FFF758FE0020FC
:1025D00042E74320FFF753FE00BF00BF07980028E3
:1025E00000D121E700BF00BF0898002800D116E7FE
:1025F00000BF00BF04982FE7014600207047F7B5E1
:1026000084B005460F460120287000206870FF2026
:10261000A870002404E0395DE01C2954601C84B2D9
:10262000385D002801D0FF2CF5DD0021E01C295485
:102630000698016801A8FFF7BFFA0026201D84B2A2
:1026400008E03046711C8EB201A90A5C2146601C6C
:1026500084B26A5401A8805D0028F2D1264603E0C6
:102660000020A855701C86B2832EF9DB07B0F0BDA0
:10267000FFB514461F460126B602B74200D300E05C
:10268000802633469F4201D23E4600E01E46B2B24B
:102690000126B602B3420BD102260E700AE00000FA
:1026A00021100000005000084804002001B0000084
:1026B00001260E704C70E6438E70009D032004E0EE
:1026C0002E780E546D1C461CB0B2D61CB042F7DBFF
:1026D0009A4208DCB0B203E01A260E54461CB0B28F
:1026E000DE1CB042F8DBFFBD70B505460E46002487
:1026F00004E0285DFFF7C3FD601C84B2B442F8DB40
:1027000070BDF7B5FFB0FFB0CCB00021039100243D
:1027100002910191002607E09F486844C06A805DED
:1027200008A98855701CC6B2FF2EF5DB0120039066
:102730009A4A6A4408A948A8FFF761FF00BF8321AD
:1027400048A8FFF7D1FF039800280CD0802148A8A3
:102750000330FFF7B8FD05462812FFF790FDE8B2F9
:10276000FFF78DFD08E0802148A80330FFF7C5FD85
:1027700006900698FFF783FD894904A8FFF76EFDD0
:10278000002806D16846007C062803D1012002906B
:1027900000E0641C0298002801D10A2CCFD30A2C37
:1027A00004D3E0B27FB07FB04FB0F0BD7A49694446
:1027B000886A0790086B01900120059061E00598F8
:1027C000C2B248A9019B0798FFF752FF002102916E
:1027D00068460174002400BF0121890201988842E3
:1027E00001D30F4600E08027F81C81B248A8FFF70C
:1027F0007BFF039800280CD0394648A80330FFF728
:1028000062FD05462812FFF73AFDE8B2FFF737FDF3
:1028100008E0394648A80330FFF76FFD0690069898
:10282000FFF72DFD5E4904A8FFF718FD00281ED113
:102830006846007C06281BD1012102910198B8420C
:102840000FD90798C11907910199C91B01910598E2
:102850002C2801D1FF20A5E70598401C81B20591E5
:1028600006E00798C11907910021019100E0641C5E
:102870000298002801D10A2CAED30A2C01D3E0B271
:1028800090E7019800289AD10021029168460174CE
:102890004174002400BF0420FFF7F1FC4148FEF71B
:1028A0005CFCC1B268460174007C062802D101209C
:1028B000029000E0641C08213A48FEF774FD02987B
:1028C000002801D10A2CE6D30A2C01D3E0B269E733
:1028D000002102916846017441740024012148A836
:1028E000017000214170FF218170032604E0002067
:1028F00048A98855701CC6B2832EF8DB00BF83211F
:1029000048A8FFF7F1FE802148A80330FFF7DBFC61
:1029100005462812FFF7B3FCE8B2FFF7B0FC2049E8
:1029200004A80130FFF79AFC002806D16846407CD5
:10293000062803D10120029000E0641C02980028C0
:1029400001D10A2CDBD30A2C01D3E0B22AE7002004
:102950006946087400BF0420FFF791FC104904A8E1
:10296000FFF77CFC002806D16846007C062802D1CF
:102970000120029000E0641C08210A48FEF713FDC4
:102980000298002801D10A2CE5D30A2C01D3E0B229
:1029900008E7002006E70000000500003005000001
:1029A00040420F000038014030B502460B4600217E
:1029B000012000BF505419544C1CE1B24400802542
:1029C0000540002D01D01B2500E000256C4044404F
:1029D000E0B20128EED11578FF24A55430BD70B5C2
:1029E0000246002000BF002808DDFE4D2D682D5C4A
:1029F000FF26751BFC4E3668715D00E000216325E3
:102A00004D402C46042308E04D00CE113543E9B279
:102A100025464D402C465D1EEBB2002BF4DC1454D1
:102A2000451CEDB22800DED170BD10B502460B4644
:102A30000020002100BF00BF545C844201D1195422
:102A4000FF214C1CE4B22100F6D1441CE4B220006A
:102A5000F1D110BD01784278027082784270C2785C
:102A60008270C170704710B504210EE002785200E8
:102A7000037880242340002B01D01B2300E0002397
:102A80005A400270401C4A1ED1B20029EEDC10BD33
:102A900018B504466078A1784840E1784840694616
:102AA00008702078A1784840E1784140684641703C
:102AB000207861784840E17841406846817020780C
:102AC00061784840A17841406846C1702046FFF7D0
:102AD000CAFF2078617848406946097848406946CD
:102AE00008706078A178484069464978484069464E
:102AF0004870A078E178484069468978484069463E
:102B000088702078E17848406946C978484069462D
:102B1000C8702046FFF7A7FF2078A1784840694693
:102B200009784840694608706078E178484069460D
:102B300049784840694648702078A17848406946FD
:102B400089784840694688706078E17848406946ED
:102B5000C97848406946C8702046FFF784FF60780E
:102B6000A1784840E1784840217848402070694683
:102B700008782178484069460870487821784840AC
:102B80006946487088782178484069468870684668
:102B9000C178207841406846C1700078207068464E
:102BA0004078607068468078A0706846C078E070B1
:102BB00018BD00BF02788D4B1B689A5C0270401CE8
:102BC0004A1ED2B21100F5D1704710B500BF03788C
:102BD000874CE35C0C7863400370401C491C531E17
:102BE000DBB21A00F3D110BD417B427A42734279C5
:102BF00042724278427141708178827A8270817229
:102C00008179827B82718173C178C279C270C27A04
:102C1000C271C27BC272C173704710B500BF037826
:102C20000C7863400370401C491C531EDBB21A0031
:102C3000F5D110BD00BF0B780370401C491C531E1A
:102C4000DBB21A00F7D170477CB5044669A0006872
:102C50000090694E202500BF30782070641C761CDF
:102C6000681EC0B20500F7D1211F042201A8FFF79A
:102C7000E1FF202547E02846E917C90E0918491148
:102C80004901691A1AD101A8FFF7E4FE042101A83D
:102C9000FFF78FFF0422694601A8FFF7BEFF6946D0
:102CA00008784000097880221140002901D01B21BA
:102CB00000E000214840694608700CE02846E9170A
:102CC000C90E091849114901691A102903D10421B3
:102CD00001A8FFF76EFF21462039042201A8FFF763
:102CE0009CFF684600792070641C6846407920701B
:102CF000641C684680792070641C6846C079207026
:102D0000641C281DC5B2F02DB5DB7CBDF8B50546A9
:102D10000C460D200090E034102221462846FFF793
:102D20007CFF103C00BF2846FFF75EFF10222146C3
:102D30002846FFF74AFF103C0426002706E0E81962
:102D4000FFF7A6FE701EC6B2381DC7B2002EF6DC15
:102D50000098401EC0B200900028E4D12846FFF73A
:102D600043FF102221462846FFF72FFFF8BD00B58C
:102D700022481D4908601E481A4908600846016833
:102D800019480068FFF710FE1D48184908600846FA
:102D90000068FFF724FE19481A49086008460068D1
:102DA000FFF752FF124818490860084601680F48AB
:102DB0000068FFF73AFE00BD30B504460D46FFF748
:102DC000D6FF102221460E48FFF734FF0D48016858
:102DD0002046FFF79BFF102229462046FFF71DFFE4
:102DE000102213E038000020340000203C000020B6
:102DF000480600200100000020320008480500209D
:102E00004807002044000020400000206D4928466B
:102E1000FFF710FF30BD30B502460B460121002000
:102E200012E00C461C40002C02D0044654402046C0
:102E30004C06210E540080251540002D01D01B2585
:102E400000E000256C40E2B20029EAD130BDF0B5C7
:102E500004460D460026042708E029786D1C2078DA
:102E6000641CFFF7D8FF4640781EC7B2002FF4DC81
:102E70003046F0BD1EB5044653A103C9029101902E
:102E8000214601A8FFF7E3FF69460870214601A823
:102E90000330FFF7DCFF0146684641702146801D84
:102EA000FFF7D5FF0146684681702146401DFFF7B8
:102EB000CEFF6946C87004222046FFF7BBFE1EBD48
:102EC000417842794270427A4271427B4272417348
:102ED0008178827A827081728179827B827181733A
:102EE000C17BC27AC273C279C272C278C271C17028
:102EF0007047F8B505460C460D200090102221467B
:102F00002846FFF78AFE103400BF10212846FFF73D
:102F100050FE2846FFF7D4FF0426002706E0E819F4
:102F2000FFF7A8FF701EC6B2381DC7B2002EF6DC30
:102F3000102221462846FFF770FE10340098401EEC
:102F4000C0B200900028E0D110212846FFF731FEE2
:102F50002846FFF7B5FF102221462846FFF75DFE01
:102F6000F8BD00B51A481B4908601B481B4908609A
:102F70000846016817480068FFF716FD164818490B
:102F8000086008460068FFF72AFD114815490860E7
:102F900008460068FFF758FE00BD30B504460D46F0
:102FA000FFF7DFFF102229462046FFF736FE0D48C7
:102FB00001682046FFF79DFF102221462846FFF7B3
:102FC00039FE30BD48070020020301010203010160
:102FD000480500203400002048060020380000206A
:102FE0003C000020440000207047F8B5042A2CD390
:102FF000830712D00B78491C0370401C521E8307B4
:103000000BD00B78491C0370401C521E830704D060
:103010000B78491C0370401C521E8B079B0F05D078
:10302000C91ADF002023DE1B08C90AE0FDF79AF861
:10303000F8BD1D4608C9FD401C46B4402C4310C0D5
:10304000121F042AF5D2F308C91A521EF0D40B78C5
:10305000491C0370401C521EEAD40B78491C0370B3
:10306000401C012AE4D409780170F8BD002203094C
:103070008B422CD3030A8B4211D300239C464EE093
:1030800003460B433CD4002243088B4231D303094F
:103090008B421CD3030A8B4201D394463FE0C30901
:1030A0008B4201D3CB01C01A524183098B4201D319
:1030B0008B01C01A524143098B4201D34B01C01A04
:1030C000524103098B4201D30B01C01A5241C3087C
:1030D0008B4201D3CB00C01A524183088B4201D3EB
:1030E0008B00C01A524143088B4201D34B00C01AD7
:1030F0005241411A00D201465241104670475DE0EC
:10310000CA0F00D04942031000D34042534000226E
:103110009C4603098B422DD3030A8B4212D3FC2217
:10312000890112BA030A8B420CD3890192118B4296
:1031300008D3890192118B4204D389013AD09211AC
:1031400000E08909C3098B4201D3CB01C01A524167
:1031500083098B4201D38B01C01A524143098B4230
:1031600001D34B01C01A524103098B4201D30B0119
:10317000C01A5241C3088B4201D3CB00C01A52413E
:1031800083088B4201D38B00C01A5241D9D2430825
:103190008B4201D34B00C01A5241411A00D2014662
:1031A000634652415B10104601D34042002B00D5CC
:1031B0004942704763465B1000D3404201B500208E
:1031C000C046C04602BD704770477047704775469D
:1031D00000F022F8AE46050069465346C008C0001C
:1031E000854618B020B5FDF743F960BC00274908B3
:1031F000B6460026C0C5C0C5C0C5C0C5C0C5C0C58F
:10320000C0C5C0C5403D49008D4670470446C04614
:10321000C0462046FCF79FFF004870474808002042
:103220009DD2002484602EDA0CDD527B05C16B0137
:10323000FF17CD6F8C1E3E09CF1F0C7887EF8AECED
:103240000A0A0D2050726F6772616D6D696E67209A
:10325000436F6D706C65746564205375636365734B
:103260007366756C6C79210A0D2D2D2D2D2D2D2D4C
:103270002D2D2D2D2D2D2D2D2D2D2D2D2D2D2D2D7E
:103280002D2D2D2D2D2D2D2D2D0D0A204E616D65F1
:103290003A2000000D0A3D20202020202020202060
:1032A000202020202020202020202020202020201E
:1032B000202020202020202020202020202020200E
:1032C00020202020202020202020202020202020FE
:1032D00020202020202020202020203D0000000051
:1032E0000D0A3D20202020202020202020202020EA
:1032F0002028432920434F505952494748542032EF
:103300003031322053544D6963726F656C6563745C
:10331000726F6E69637320202020202020202020DF
:10332000202020202020203D000000000D0A3D200C
:10333000202020202020202020202020202020208D
:10334000202020202020202020202020202020207D
:1033500020204279204D4344204170706C696361A4
:1033600074696F6E205465616D202020202020201C
:103370002020203D000000000D0A3D202053544D28
:1033800033324630787820496E2D4170706C696315
:103390006174696F6E2050726F6772616D6D696ED6
:1033A00067204170706C69636174696F6E202028BA
:1033B00056657273696F6E20312E302E3029203D94
:1033C000000000000D0A3D3D3D3D3D3D3D3D3D3D84
:1033D0003D3D3D3D3D3D3D3D3D3D3D3D3D3D3D3D1D
:1033E0003D3D3D3D3D3D3D3D3D3D3D3D3D3D3D3D0D
:1033F0003D3D3D3D3D3D3D3D3D3D3D3D3D3D3D3DFD
:103400003D3D3D3D3D3D3D3D3D3D3D3D00000000E0
:1034100030340008000000204800000004010008CB
:103420007834000848000020600E000020010008E9
:10343000006CDC0200000000000000000102030438
:10344000060708090000000001020304010203044A
:10345000060708090000000000000000000000004E
:10346000000000000000000000000000000000005C
:08347000000000000000000054
:105000004007002059510008396C00083B6C00082B
:105010000000000000000000000000000000000090
:105020000000000000000000000000003F6C0008CD
:105030000000000000000000416C0008436C000804
:105040006B510008000000006B5100086B51000814
:105050006B5100086B5100086B5100086B51000840
:10506000000000006B5100086B5100086B510008F4
:105070006B5100086B5100086B51000800000000E4
:105080006B51000800000000000000006B51000898
:105090006B5100086B5100086B5100086B51000800
:1050A0006B5100086B5100086B510008EF6A000853
:1050B0006B51000800F002F800F03EF80CA030C878
:1050C000083824182D18A246671EAB4654465D4684
:1050D000AC4201D100F030F87E460F3E0FCCB64610
:1050E0000126334200D0FB1AA246AB463343184791
:1050F000B01D0000D01D0000103A02D378C878C15E
:10510000FAD8520701D330C830C101D504680C6009
:10511000704700000023002400250026103A01D328
:1051200078C1FBD8520700D330C100D50B6070475F
:105130001FB51FBD10B510BD01F076FE1146FFF77B
:10514000F7FF01F025FD01F0A0FE03B4FFF7F2FF29
:1051500003BC01F077FC0000074880470748004780
:10516000FEE7FEE7FEE7FEE7FEE7FEE70448054947
:10517000054A064B70470000D7680008B550000884
:105180004001002040070020400300204003002091
:1051900001460020FE4A10684008400002460A43CB
:1051A0001046FB4A10607047002806D0F84909688D
:1051B00010221143F64A116005E0F54909681022F2
:1051C0009143F34A116070470020F1490968202299
:1051D0001140002901D0012000E000207047EC4878
:1051E000006980210840002804D0EA48E849486066
:1051F000E94848607047E648006980210843E4496F
:10520000086170470420E249C968C907C90F00292D
:1052100001D0012010E0DE49C968102211400029A8
:1052200001D0022008E0DA49C968042211400029AF
:1052300001D0032000E00420704710B50346042489
:10524000FFF7E0FF044603E0FFF7DCFF04465B1EC8
:10525000012C01D1002BF7D1002B00D105242046D1
:1052600010BD30B5044604250B200004FFF7E5FF10
:105270000546042D17D1C648006902210843C449D8
:10528000086108464461006940210843C04908613B
:105290000B200004FFF7D1FF0546BD48006902213D
:1052A0008843BB490861284630BD10B504240B2053
:1052B0000004FFF7C2FF0446042C16D1B44800696D
:1052C00004210843B24908610846006940210843A7
:1052D000AF4908610B200004FFF7AFFF0446AC485C
:1052E000006904218843AA490861204610BD78B5A9
:1052F00006460C460425002000900B200004FFF712
:105300009CFF0546042D24D1A148006901210843D2
:105310009F49086134800B200004FFF78EFF05468B
:10532000042D10D1B01C0090200C009908800B2097
:105330000004FFF782FF05469548006940084000D9
:105340009349086105E0924800694008400090498F
:105350000861284678BD70B504460D4604260B202A
:105360000004FFF76AFF0646042E11D18848006941
:10537000012108438649086125800B200004FFF7BE
:105380005CFF064682480069400840008049086189
:10539000304670BD7E48006901214902084000285E
:1053A00004D17C487A4988607B4888607047784897
:1053B00000690121490288437549086170477448B2
:1053C00000690121490308437149086170470020C1
:1053D0006F49C96906221140002901D0012000E06F
:1053E0000020704730B5AA250424FFF7F0FF0028FD
:1053F00000D000250B200004FFF71FFF0446042CFB
:1054000036D1634800692021084361490861084694
:105410000069402108435E4908610B200004FFF742
:105420000CFF0446042C1BD15948006920218843F5
:10543000574908610846006910210843544908612A
:10544000564805800B200004FFF7F7FE0446052CA4
:105450000ED04F480069102188434D49086107E08C
:10546000052C05D04A480069102188434849086145
:10547000204630BDFCB50446494E374630460190C3
:1054800000900425E443E6B22004070E2002000E3B
:105490000190200E00900B200004FFF7CEFE054681
:1054A000042D3BD13A48006910210843384908616E
:1054B000FF2E06D0394806810B200004FFF7BDFE01
:1054C0000546042D08D1FF2F06D0344847810B2014
:1054D0000004FFF7B2FE0546042D0AD10198FF280B
:1054E00007D02E49019888810B200004FFF7A5FE04
:1054F0000546042D0AD10098FF2807D027490098B7
:10550000C8810B200004FFF798FE0546052D05D045
:105510001F480069102188431D4908612846FCBDC9
:1055200030B5054604240B200004FFF786FE044630
:10553000042C41D116480069202108431449086110
:105540000846006940210843114908610B20000406
:10555000FFF773FE0446042C26D10D480069202174
:1055600088430B490861084600691021084308492F
:1055700008610A4805800B200004FFF75EFE044620
:10558000052C19D00248006910218843004909E020
:105590000020024023016745AB89EFCD00F8FF1FD3
:1055A000FFFF0000086107E0052C05D0A248006954
:1055B00020218843A0490861204630BDF0B505464A
:1055C0000E46174604240B200004FFF736FE04465F
:1055D000042C19D1984800691021084396490861A4
:1055E00028463043F82139430843944948800B202A
:1055F0000004FFF722FE0446052C05D08E48006902
:10560000102188438C4908612046F0BD30B505461D
:1056100004240B200004FFF710FE0446042C16D1CE
:10562000854800691021084383490861EF20284319
:10563000824948800B200004FFF7FFFD0446052C3B
:1056400005D07D480069102188437B4908612046C8
:1056500030BD30B5054604240B200004FFF7EDFDF6
:105660000446042C16D1744800691021084372497D
:105670000861F7202843714948800B200004FFF798
:10568000DCFD0446052C05D06B48006910218843D9
:1056900069490861204630BD30B5054604240B2019
:1056A0000004FFF7CAFD0446042C16D162480069C5
:1056B00010210843604908617F2028435F494880E2
:1056C0000B200004FFF7B9FD0446052C05D05A480D
:1056D00000691021884358490861204630BD30B523
:1056E000054604240B200004FFF7A7FD0446042C04
:1056F00016D151480069102108434F490861DF2045
:1057000028434E4948800B200004FFF796FD0446CD
:10571000052C05D048480069102188434649086196
:10572000204630BD30B5054604240B200004FFF7A9
:1057300084FD0446042C16D13F480069102108431B
:105740003D490861BF2028433C4948800B200004A4
:10575000FFF773FD0446052C05D03748006910217A
:10576000884335490861204630BD30B505460424DC
:105770000B200004FFF761FD0446042C14D12E48D1
:105780000069102108432C4908612C4845800B20F2
:105790000004FFF752FD0446052C05D02648006999
:1057A0001021884324490861204630BD70B5054664
:1057B0000E4604240B200004FFF73FFD0446042C92
:1057C00013D11D480069102108431B4908612E8030
:1057D0000B200004FFF731FD0446052C05D01648C8
:1057E00000691021884314490861204670BD1248A1
:1057F000C0690004000E70470F48006A7047002916
:1058000005D00D4A126902430B4B1A6104E00A4AA3
:1058100012698243084B1A61704701460020064A0C
:10582000D2680A40002A01D0012000E00020704721
:105830000149C860704700000020024000F8FF1FC7
:1058400010B504460920C006844209D1012148044C
:1058500000F064FC00210120400400F05FFC3CE00B
:105860007448844208D10121000200F057FC002155
:10587000200200F053FC30E06F48844208D101213F
:10588000000200F04BFC0021200200F047FC24E065
:105890006A48844209D10121080500F03FFC00213B
:1058A0000120000500F03AFC17E06548844208D169
:1058B0000121400200F032FC0021600200F02EFCC9
:1058C0000BE06048844208D10121880500F026FCE5
:1058D00000210120800500F021FC10BDF0B50A4632
:1058E00000210023002400BF3DE001258D402B4610
:1058F00015681D402C469C4234D11579012D02D0EB
:105900001579022D16D185684F000326BE40B54398
:10591000856055794E00B540866835438560858839
:1059200001268E40B5438580858896798E40B6B233
:105930003543858005684F000326BE40B5430560AA
:1059400015794E00B540066835430560C5684F00BF
:105950000326BE40B543C560D5794E00B540C66844
:105960003543C560491C1029BFD3F0BD36490160DD
:10597000002101710121417100218171C1717047C4
:1059800008B5012212040092009A0A430092009A7C
:10599000C261C161009AC261C2690092C26900928B
:1059A00008BD02460020138A0B40002B01D00120C5
:1059B00000E0002070470146088A70470246002038
:1059C000938A0B40002B01D0012000E0002070479B
:1059D0000146888A70478161704701857047002AB7
:1059E00001D0816100E00185704781827047F0B588
:1059F000002300244D07EE0E1546B5402B46CD1072
:105A0000AE0005462035AD594E07F70E0F26BE40B5
:105A1000B543CE10B60007462037BD51CD10AE00BD
:105A20003D46AD591D432C46CD10AD003E46745148
:105A3000F0BD00000004004800080048000C0048C9
:105A40000010004800140048FFFF00000021827889
:105A5000002A27D0274A03231B02D21803789B1061
:105A60009B00D15802789207D30EFF229A400B4632
:105A70009343194642789207120E03789B07DB0E78
:105A80009A4011431B4A03231B02D21803789B1030
:105A90009B00D1500278D306DB0E01229A40154BB1
:105AA0001A6007E00278D306DB0E01229A40114B00
:105AB00080331A607047002905D00F4A12690243EB
:105AC0000D4B1A6104E00C4A126982430A4B1A61B9
:105AD0007047042806D10949096904221143074A7D
:105AE000116105E00549096904229143034A1161E6
:105AF0007047000000E100E000ED00E000E000E0A1
:105B0000FB48006801210843F949086008464068DD
:105B1000F8490840F649486008460068F6490840D8
:105B2000F349086008460068012189048843F04968
:105B30000860084640683F2109048843EC494860F2
:105B40000846C06A00090001C8620846006BFF21D0
:105B500054318843E64908630846406B40084000DA
:105B600048630020886070470021E14A9170114627
:105B70008870704710B502460021002300205111A3
:105B8000002902D1DA4C23680BE0012902D1D84C5C
:105B9000236A06E0022902D1D54C636A01E0D44CA5
:105BA000636BD106C90E01248C401C40002C01D02F
:105BB000012000E0002010BD38B500200090002436
:105BC000002500BF1120FFF7D5FF05460098401CB7
:105BD0000090052109030098884201D0002DF1D0E2
:105BE0001120FFF7C7FF002801D0012400E00024A6
:105BF000204638BD01460020BD4A1068F823024601
:105C00009A431046CA001043B94A106070470028F2
:105C100006D0B749096801221143B54A116005E071
:105C2000B349096849084900B14A11607047014603
:105C30000020AF4A506BF82302469A431046CA0030
:105C40001043AB4A50637047002806D0A849496BFF
:105C500001221143A64A516305E0A549496B490851
:105C60004900A34A51637047002806D0A049496BF8
:105C7000042291439E4A516305E09D49496B0422E9
:105C800011439B4A516370479949096A4908490081
:105C9000974A11621146096A04229143944A11629B
:105CA0001146096A0143116270479149096A182235
:105CB00091438F4A11621146096A0143116270478C
:105CC000002806D08A49496A01221143884A516254
:105CD00005E08749496A49084900854A5162704789
:105CE000834A52687B23DB039A43814B5A601A46EE
:105CF000526803460B431A437D4B5A607047002895
:105D000007D07B490968012212061143784A1160C5
:105D100006E077490968012212069143744A11602E
:105D20007047002807D07249496B012212041143C1
:105D30006F4A516306E06E49496B01221204914398
:105D40006B4A5163704701460020694AD06A0009D6
:105D5000000102460A431046654AD0627047002897
:105D600007D0634909680122D2041143604A1160D7
:105D700006E05F4909680122D20491435C4A116040
:105D800070475B49C871704701460020584A506807
:105D90008008800002460A431046554A506070470A
:105DA000534840680C210840704701460020504A83
:105DB0005068F02302469A43104602460A431046B2
:105DC0004B4A5060704701460020494A50680723FB
:105DD0001B0202469A43104602460A431046444AB2
:105DE0005060704742494968012292039143404AFA
:105DF00051601146496882B211433D4A51601146D3
:105E0000096B921591433A4A11631146096B020CD2
:105E10001143374A116370473549096B402291435A
:105E2000334A11631146096B0143116370473049CE
:105E3000096B102291432E4A11631146096B0143ED
:105E4000116370470021010F012906D1284A126B06
:105E500092089200264B1A6306E0254A126B032330
:105E60001B049A43224B1A63214A126B0243204BB4
:105E70001A6370471E49096B802291431C4A1163C3
:105E80001146096B014311637047FEB504460025B6
:105E900000260020029001900090002714484068DE
:105EA0000C2108400546002D06D0042D07D0082DF2
:105EB00008D00C2D37D133E01048206036E00F4871
:105EC000206033E00A4840680F21890408400646F4
:105ED000074840680321C90308400290B00C861CA3
:105EE000029800280ED106483746474316E00000C6
:105EF000001002400CB8FFF8FFFFF6FE00127A0017
:105F000000093D00AC48C06A0007000F401C01902A
:105F1000AA48019900F0A6FE70430746276005E0F5
:105F2000A748206002E0A548206000BF00BFA2484B
:105F30004068F021084005462D09A248405D0090C8
:105F400021680098C14061609B48406807210902B0
:105F5000084005462D0A9B48405D00906168009806
:105F6000C140A1609448006BFF2101310840884284
:105F700002D09548E0600DE08F4840680121890318
:105F80000840884203D0A0684008E06002E0A068B2
:105F90008008E0608848006B40210840402802D01B
:105FA0008A48206102E00120C00320618248006B22
:105FB00010210840102802D08048606101E020686C
:105FC00060617D48006B8007800F002802D1A068C7
:105FD000A06119E07848006B8007800F012802D18A
:105FE0002068A06110E07448006B8007800F0228D1
:105FF00002D18003A06107E06F48006B8007800F2B
:10600000032801D16D48A0616B48006B032109048E
:106010000840002802D1A068E06120E06648006BDB
:1060200003210904084001210904884202D12068A3
:10603000E06114E06048006B03210904084001217D
:106040004904884202D18010E06108E05A48006BA0
:10605000032109040840884201D15848E0615648AC
:10606000006B80210840802802D05548206200E063
:106070002762FEBD5049096A01434F4A11627047C9
:10608000002807D04C49096A0122D20311434A4A29
:10609000116206E04849096A0122D2039143464A47
:1060A00011627047002807D04349096A012212048F
:1060B0001143414A116206E03F49096A0122120474
:1060C00091433D4A11627047002905D03A4A52690E
:1060D0000243394B5A6104E0374A52698243364BD6
:1060E0005A617047002905D0334A92690243324B06
:1060F0009A6104E0304A926982432F4B9A6170475B
:10610000002905D02C4AD26902432B4BDA6104E006
:10611000294AD2698243284BDA617047002905D0A9
:10612000254A926A0243244B9A6204E0224A926A08
:106130008243214B9A627047002905D01E4AD268DB
:1061400002431D4BDA6004E01B4AD26882431A4BBB
:10615000DA607047002905D0174A12690243164BCE
:106160001A6104E0144A12698243134B1A617047A2
:10617000002905D0104A527A02430F4B5A7204E0AC
:106180000D4A527A82430C4B5A7270470A48406A51
:10619000012109060843084948627047014600206A
:1061A000054A92680A40002A01D0012000E0002040
:1061B00070470149887270470010024000127A004F
:1061C000006CDC02B4000020809FD500128000002B
:1061D0003A4800688007800F3849086000208860CE
:1061E00000213648C160016141618069FF210131B0
:1061F0000843324988617047014600202F4A1068E1
:106200008008800002460A4310462C4A10607047FE
:10621000002905D0294A12680243284B1A6004E07D
:10622000264A12688243254B1A607047002905D020
:10623000224A12680243214B1A6004E01F4A126886
:1062400082431E4B1A60704730B500228B071C0F2B
:106250000F23A3401A46194B08338C10A4001B5976
:106260009343164C08348D10AD00635123468C10B7
:10627000A4001B598C07250F0446AC4023430F4C48
:1062800008348D10AD00635130BD0C49896901435C
:106290000A4A9161704701460020084A9269FF232B
:1062A00001331A40002A01D0012000E0002070478D
:1062B000024989690143014A916170470000014028
:1062C00010B50446F848844209D101218803FFF73C
:1062D00033FF002101208003FFF72EFF25E0F34864
:1062E000844209D101214804FFF734FF0021012035
:1062F0004004FFF72FFF18E0ED48844209D1012147
:106300008804FFF727FF002101208004FFF722FF08
:106310000BE0E848844208D10121C804FFF71AFFC6
:1063200000210120C004FFF715FF10BDF0B58BB0B0
:1063300004460D46002700200A90002620684008E9
:106340004000206066680321090330468843064602
:10635000A868064366602668D7480640E96868680A
:1063600008432969084306432660A66803210902F9
:1063700030468843064668690643A66001A8FFF7D1
:1063800084FDC948844202D107980A9007E0C748B3
:10639000844202D108980A9001E003980A9020688C
:1063A0000121C903084000280CD029680A9A50002E
:1063B00000F058FC074629680A9A500000F052FC89
:1063C0000E4609E029680A9800F04CFC0746296847
:1063D0000A9800F047FC0E4628684008B04200D8F2
:1063E0007F1C20680121C9030840002806D0380717
:1063F000460F3846B149084030430746A7810BB0E5
:10640000F0BD4B21C9010160002141608160C16084
:106410000C21016100214161704710B500224268E2
:106420000F2424021346A3431A464C680B682343E7
:106430008C682343CC6823431A43426010BD00217B
:10644000016041608160C1607047002904D002682A
:1064500001231A43026003E00268520852000260FE
:106460007047002A03D003680B43036002E003680F
:106470008B4303607047002905D002680123DB03CA
:106480001A43026004E002680123DB039A430260BE
:106490007047002905D082680123DB021A4382601D
:1064A00004E082680123DB029A438260704700297E
:1064B00005D042680123DB041A43426004E04268CD
:1064C0000123DB049A4342607047002905D04268EB
:1064D00001239B041A43426004E0426801239B04A9
:1064E0009A4342607047002A03D043680B434360DD
:1064F00002E043688B4343607047002905D042683F
:106500000123DB031A43426004E042680123DB03FA
:106510009A4342607047002905D042680123DB0599
:106520001A43426004E042680123DB059A4342605B
:1065300070474269120E1206426142690A43426183
:106540007047028AFF231B021A400282028A0A4312
:1065500002827047002904D0026802231A430260B5
:1065600003E0026802239A430260704782680323B3
:106570001B059A43826082680A4382607047002943
:1065800005D0426801231B051A43426004E04268BB
:1065900001231B059A4342607047426803235B0551
:1065A0009A43426042680A4342607047CA05D20D6E
:1065B000028570470146888CC005C00D704742684F
:1065C0001202120A426042680B061A434260704788
:1065D000002905D0026801235B031A43026004E02E
:1065E000026801235B039A4302607047026801233B
:1065F000DB029A43026002680A4302607047426805
:1066000010239A43426042680A43426070474268DE
:1066100020239A43426042680A434260704700293F
:1066200005D0426801239B031A43426004E042689C
:1066300001239B039A4342607047002904D082687B
:1066400008231A43826003E0826808239A43826029
:106650007047028AD2B20282028A0B021A43028275
:106660007047002904D0826820231A43826003E027
:10667000826820239A4382607047002904D0826890
:1066800010231A43826003E0826810239A438260D9
:106690007047826807235B049A43826082684B04D8
:1066A0001A438260704700000038014000440040F7
:1066B00000480040004C0040F3E9FFFFF0FF0000FD
:1066C00042691202120A426142690B061A43426190
:1066D0007047826804239A43826082680A4382601A
:1066E0007047002904D0826802231A43826003E0C5
:1066F000826802239A4382607047002905D082682D
:1067000001239B031A43826004E0826801239B03F8
:106710009A438260704782680123DB039A43826058
:1067200082680A438260704702681F235B059A43B0
:10673000026002684B051A430260704702681F231B
:106740001B049A43026002680B041A4302607047FC
:10675000002A03D083680B43836002E083688B4385
:1067600083607047826801235B039A43826082687A
:106770000A4382607047F8B503460024002600965D
:106780000025002018460E04340ECEB200960127D4
:10679000009EB7403D46022C01D1001D02E0032CB3
:1067A00000D10830002A03D006682E43066002E0BC
:1067B0000668AE430660F8BD002A03D0038B0B4386
:1067C000038302E0038B8B430383704782680123BA
:1067D0001B039A43826082680A43826070470246C4
:1067E0000020D3690B40002B01D0012000E00020E5
:1067F00070470162704770B502460B4600240021C5
:10680000002500201E04350ED9B201268E403146E7
:10681000012D02D11668314006E0022D02D15668E2
:10682000314001E0966831401C0C0126A6403446F8
:10683000D6693440002903D0002C01D0012000E0AB
:10684000002070BD10B5002300220B0C01249C40D9
:106850002246026210BD00000CB50020019000909D
:1068600011205F4908605F4840685E4948600846FB
:1068700040684860084640687F21C90388435949F9
:106880004860084640680521C904084355494860E6
:10689000084600680121090608435249086000BF04
:1068A000504800680121490608400028F8D04D48AA
:1068B0004068800880004B494860084640680221D3
:1068C00008434849486000BF464840680C210840DA
:1068D0000828F9D10CBD10B54248006801210843D1
:1068E00040490860084640683F4908403D494860C3
:1068F000084600683D4908403A4908600846006873
:1069000001218904884337490860084640683F21CF
:1069100009048843334948600846C06A00090001F9
:10692000C8620846006BFF21543188432D49086333
:106930000846406B40084000486300208860FFF72D
:106940008BFF10BDF8B50025002400260027254840
:1069500040680C2108400546002D04D0042D06D0C7
:10696000082D2AD107E022482249086029E0204862
:106970002049086025E01B4840680F218904084031
:106980000446184840680321C90308400646A00C85
:10699000841C002E04D118486043164908600BE09F
:1069A0001048C06A0007000F471C3946104800F025
:1069B00059F960430F49086003E00D480D4908602C
:1069C00000BF00BF07484068F021084000090B499C
:1069D0000D5C08480068E84006490860F8BD000002
:1069E00000200240001002400CB8FFF8FFFFF6FE46
:1069F00000127A00C400002000093D00C8000020F9
:106A00001CB50121C804FFF75FFB01204003009083
:106A1000012168460171002181710121C1710321A9
:106A2000417169460648FEF759FF1CBD012805D192
:106A30000349898A42035140014A9182704700000C
:106A40000008004800BF704700BF324AD269802367
:106A50001A40002AF9D02F4B20331881704710B507
:106A60008AB0044601214804FFF72EFB0121880368
:106A7000FFF738FB01220921C806FEF7B8FF012203
:106A80000A210920C006FEF7B2FF03204002089049
:106A9000022108A8017103214171002181710121A6
:106AA000C17108A90920C006FEF718FF0294002052
:106AB00003900490059007900C20069002A91548B9
:106AC000FFF734FC012214491248FFF754FE01215C
:106AD0001048FFF7BAFC1B21684601710321417180
:106AE0000121817101A8FEF7B1FF0AB010BD10B5F8
:106AF000002409490748FFF77EFE002808D0054812
:106B0000FFF758FDC4B2312C02D1012003490870AF
:106B100010BD00000038014005010500DC00002028
:106B200070B504460D46FEF75AFB2046FEF799FB6A
:106B300029462046FEF70FFCFEF75DFB70BD0146BF
:106B40000888704710B5002400BF09E0A0002B4959
:106B500040180068A1000122520789180860641CCF
:106B6000302CF3D301210846FFF7BCFA0320FFF7CE
:106B700043FB10BD002108E0002201E0531C9AB243
:106B80001F4B9A42FADB4B1C99B28142F4DB7047EF
:106B9000FFF7D8FFFFF734FFE1200002FFF75FFFA8
:106BA000012251031748FEF71AFF26E01648007825
:106BB00001280FD100201449087014A000F044F8F7
:106BC00019491A48FFF7ACFF6420FFF7D3FF1848B4
:106BD0001849C860012251030A48FEF700FF7D20D2
:106BE000C000FFF7C7FF0022012149030548FEF757
:106BF000F6FE7D20C000FFF7BDFFD7E7005000087C
:106C0000B012000000080048DC000020CAD5B5BD65
:106C1000BCD3C3DCCEC4BCFEBFAACABCC9FDBCB6D3
:106C20002E2E2E2E2E0D0A00AAAA0000384A000889
:106C30000400FA0500ED00E0704700BFFEE7704772
:106C400070477047704700000FB4054910B503AA9C
:106C5000029800F0B9F810BC08BC04B01847000056
:106C6000D8000020002203098B422CD3030A8B4258
:106C700011D300239C464EE003460B433CD4002234
:106C800043088B4231D303098B421CD3030A8B4246
:106C900001D394463FE0C3098B4201D3CB01C01A14
:106CA000524183098B4201D38B01C01A52414309DF
:106CB0008B4201D34B01C01A524103098B4201D3CD
:106CC0000B01C01A5241C3088B4201D3CB00C01A3A
:106CD000524183088B4201D38B00C01A52414308B2
:106CE0008B4201D34B00C01A5241411A00D20146D7
:106CF0005241104670475DE0CA0F00D04942031070
:106D000000D34042534000229C4603098B422DD3BE
:106D1000030A8B4212D3FC22890112BA030A8B4266
:106D20000CD3890192118B4208D3890192118B42B5
:106D300004D389013AD0921100E08909C3098B423A
:106D400001D3CB01C01A524183098B4201D38B017D
:106D5000C01A524143098B4201D34B01C01A524120
:106D600003098B4201D30B01C01A5241C3088B4265
:106D700001D3CB00C01A524183088B4201D38B0050
:106D8000C01A5241D9D243088B4201D34B00C01ADA
:106D90005241411A00D20146634652415B101046EF
:106DA00001D34042002B00D54942704763465B1037
:106DB00000D3404201B50020C046C04602BD704726
:106DC0007047704770470000084B70B50D467B4414
:106DD00000F013F80446284600F022F8002802D0FC
:106DE0000020C04370BD204670BD000077FCFFFF4F
:106DF00001694A1C02610878704700B58FB00291A2
:106E000000210591054901937944039111460490AD
:106E1000684600F028F80FB000BD0000E5FFFFFF56
:106E2000C068802108407047754600F035F8AE46CE
:106E3000050069465346C008C000854618B020B515
:106E4000FEF794F960BC00274908B6460026C0C585
:106E5000C0C5C0C5C0C5C0C5C0C5C0C5C0C5403D12
:106E600049008D467047F8B506460024476880689B
:106E700000903046F56803E00099B847641C30463E
:106E8000A8470028F8D12046F8BD0446C046C046B1
:106E90002046FEF75AF9000000487047E000002045
:106EA000C06E0008B40000202C000000F85000085C
:106EB000EC6E0008E000002060060000145100089D
:106EC0000000000001020304010203040607080990
:106ED00000127A000000000000000000010203041C
:0C6EE00006070809000000000000000088
:00000001FF
